:040000000DEF0EF002
:1000080000C01EF001C01DF002C01CF003C01BF0B0
:1000180004C01AF005C019F008C018F009C017F09C
:100028000AC016F00BC015F0E1CF27F0E2CF28F098
:10003800E9CF25F0EACF26F0F3CF23F0F4CF24F070
:10004800F5CF22F0F8CF1FF0F7CF20F0F6CF21F050
:100058000FEC0DF022C0F5FF1FC0F8FF20C0F7FF1E
:1000680021C0F6FF23C0F3FF24C0F4FF1EC000F038
:100078001DC001F01CC002F01BC003F01AC004F040
:1000880019C005F018C008F017C009F016C00AF02A
:1000980015C00BF025C0E9FF26C0EAFF27C0E1FF25
:0600A80028C0E2FF110078
:1000AE00000E056E040E066EA8C003F0000E046E60
:1000BE00033604360390033604360390A9C000F0CD
:1000CE00000E016E003601360090005003260150DE
:1000DE00042203C001F004C002F001360190023682
:1000EE0001360190023601C003F002C004F0043262
:1000FE000332049E04BC048E04320332049E04BCFC
:10010E00048E03C000F004C001F0003600900136EA
:10011E00003600900136055000260650012200C020
:10012E0005F001C006F000C0E1FF01C0E2FFE69E4F
:10013E000001A951000A12E1A8C000F0000E016EE4
:10014E00003600900136460E0024E16E000E0120AE
:10015E00E26E05C0E6FF06C0E6FF11D0A8C000F0B3
:10016E00000E016E0036009001364A0E0024E16E3C
:10017E00000E0120E26E05C0E6FF06C0E6FF05C0D8
:10018E00E1FF06C0E2FFE69C040E0524E16E000EC0
:08019E000620E26EE68C12005F
:0E01A600800E0001A811006E00C07EF0120055
:1001B400A8C07BF0A9C07CF0AAC07FF0ABC080F0DF
:1001C400800E0001AC11006E008000C07EF01200B1
:1001D400A8C07BF0A9C07CF0AAC07DF0ABC07FF0C2
:1001E400ACC080F0800E0001AD11006E00C07EF046
:0201F4001200F7
:1001F60020C401F01F0E01160150010AD8A41200F6
:1002060004012451000AD8A412002151060A38E13B
:100216002DD000018151010A12E1A00EA86F1D0E1A
:10022600A96F000EAA6F120EA827000EA923AA23F3
:10023600090EAB6F000EAC6F400EAD6FC8DF20D05D
:1002460000018151010A0DE10F0EA86F1E0EA96F64
:10025600000EAA6F210EAB6F000EAC6F400EAD6F95
:10026600B6DF0ED00001A86B9BDF0AD00401235134
:10027600210ACFE02351220AE3E02351230AF2E0C8
:1002860020C401F0600E0116050E006E005004E059
:100296000132019EFF0FFBD70150010AD8A41200BC
:1002A60027D039D038D0850E0001A86F000EA96F6F
:1002B600010EAA6F000EAB6F400EAC6F78DF2BD02D
:1002C6000001A86B6DDF23C485F025D00001840EE4
:1002D600A86F000EA96F010EAA6F000EAB6FAC6B74
:1002E60066DF19D00001A86B5BDF22C484F013D04F
:1002F60004012151010AD5E02151090AD3E0215117
:10030600020AD1E021510A0ADBE02151030ADEE0AC
:0803160021510B0AE7E012007F
:10031E00700EE16E0F0EE26E0001A351E126D8B011
:10032E00E22AA4C0E6FFA4A504D0A3C0A8F0A96B3E
:10033E00B7DEA4A305D0A3C0A8F0010EA96FB0DE4E
:02034E0012009B
:100350000001A451000A12E0A3C000F0000E016EDB
:100360000036009001364A0E0024E96E000E01208E
:10037000EA6EEECF04F0EECF05F011D0A3C000F08E
:10038000000E016E003600900136460E0024E96E24
:10039000000E0120EA6EEECF04F0EECF05F0020E63
:1003A0000424E16E000E0520E26EA5C0E6FFA6C0A3
:1003B000E6FF010E0424E16E000E0520E26EA7C0E8
:1003C000E6FF04C0E9FF05C0EAFFEECF00F004C07D
:1003D000E1FF05C0E2FF400E0014E66E04C0E9FF35
:1003E00005C0EAFFEECF00F004C0E1FF05C0E2FF68
:1003F000880E0010E66EA451000A1BE0A3C000F0B6
:10040000000E016E0036009001364A0E0024026E86
:10041000000E0120036E02C0E9FF03C0EAFF040ED4
:10042000EE18006E02C0E1FF03C0E2FF00C0E6FF6D
:100430001AD0A3C000F0000E016E00360090013605
:10044000460E0024026E000E0120036E02C0E9FF7A
:1004500003C0EAFF040EEE18006E02C0E1FF03C005
:10046000E2FF00C0E6FF04C000F005C001F012008A
:10047000505215E0010E0001A36F1E0EA46F4FDF56
:10048000010EA36FA46B55C0A5F056C0A6F0400E98
:10049000A76F5EDF00C051F001C052F014D0000120
:1004A000010EA36F1E0EA46F3ADF010EA36FA46BA3
:1004B00055C0A5F056C0A6F0400EA76F49DF00C09A
:0804C00051F001C052F01200DE
:0804C800505201E094DE120025
:1004D0000B6A0A6A096A00500402F4CF09F0F3CFEC
:1004E00008F001500502F4CF0BF0F3CF0AF00050F2
:1004F0000502F3500926F4500A22E86A0B22015043
:100500000402F3500926F4500A22E86A0B2208C0BC
:1005100000F009C001F00AC002F00BC003F01200A5
:100520009DC002F09EC003F0A0C000F0A1C001F089
:10053000010E0001A05F000EA15B0050011009E058
:1005400002C0E1FF03C0E2FF9FC0E6FF024A032AA8
:04055000EBD71200D3
:100554000CD08CDF3CD03BD0B5DF39D038D037D08D
:1005640036D035D0000033D032D0000E00019E19B1
:1005740002E1010E9D19EDE0000E9E1902E1020E4A
:100584009D19E9E0000E9E1902E1030E9D19E4E0B5
:100594009E51000A02E1730E9D19E0E09E51000A8B
:1005A40002E1750E9D19DBE09E51000A02E1740E12
:1005B4009D19D6E09E513F0A02E1FF0E9D19D1E03C
:1005C4009E51000A02E1720E9D19CCE0CDD7010EB6
:0405D400006E1200A3
:0C05D800100E0D6E0D2EFED7000012005C
:0405E4000000120001
:1005E800080E0C6E230E0D6E0D2EFED70C2EFCD7AA
:0205F8001200EF
:1005FA0000017E8F710E9D6F0F0E9E6F9F6B010E15
:10060A00A06F000EA16F87DF6B0E9D6F000E9E6FAD
:10061A009F6B010EA06F000EA16F7DDF22C481F0D7
:10062A008151000A03E1100E576E0FD0200E576E4B
:10063A00010E9D6F000E9E6F810E9F6F000EA06FC0
:0C064A00010EA16F000EA26F80DF1200F5
:100656000401286B296B4AD000017E8F0401288192
:1006660000016C51010A02E10401288354D0000103
:100676007E8F51D000017E8F040124BF16D024C482
:1006860003F00F0E031603C000F0000E016E0036D5
:1006960000900136460E0024E96E000E0120EA6E37
:1006A600EECF04F0EECF05F015D024C403F00F0E04
:1006B600031603C000F0000E016E003600900136EE
:1006C6004A0E0024E96E000E0120EA6EEECF04F019
:1006D600EECF05F004C0E9FF05C0EAFFEECF01F05A
:1006E60001A403D00401010E286F15D020C401F027
:1006F6001F0E01160150000AAFE020C401F01F0EC4
:1007060001160150010AB3E020C401F01F0E0116C4
:100716000150020AAFE000017EAF07D0280E7B6FC2
:0C072600040E7C6F7E81020E7F6F1200BB
:1007320004012251010A13E120C401F01F0E011627
:100742000150000A0CE100017E8F04012151030ACD
:1007520004E1010E00016C6F02D000016C6B040118
:100762002251000AD8A48BD020C401F01F0E01161A
:100772000150020AD8A483D024C401F00F0E01163E
:100782000150000AD8B47BD000017E8F040124BF3F
:1007920016D024C403F00F0E031603C000F0000E9F
:1007A200016E003600900136460E0024E96E000EFE
:1007B2000120EA6EEECF04F0EECF05F015D024C48E
:1007C20003F00F0E031603C000F0000E016E003698
:1007D200009001364A0E0024E96E000E0120EA6EF6
:1007E200EECF04F0EECF05F02151030A07E104C079
:1007F200E1FF05C0E2FF840EE66E41D024C400F0A2
:100802000F0E0016700E026E0F0E036E00500226BF
:10081200D8B0032A02C0E9FF03C0EAFFEECF00F01E
:10082200EECF01F0009002C0E1FF03C0E2FF00C082
:10083200E6FF01C0E6FF24AF11D004C0E1FF05C00E
:10084200E2FFE66A040E0418006E00C004F004C061
:10085200E1FF05C0E2FF400EE66E11D004C0E1FFE9
:1008620005C0E2FF880EE66E040E0418006E00C09A
:1008720004F004C0E1FF05C0E2FFC80EE66E1200FC
:10088200F250026EF29E0500FF6A0150FE6E0050A9
:08089200FD6E02BEF28E1200A1
:10089A0004012051800AD8A479D0C00E00017E6FCD
:1008AA006AD000014D0E006E1E0E016E000E026E21
:1008BA0000C07BF001C07CF002C07DF0120E7F6F99
:1008CA00000E806F63D0000122C400F0000E016E9A
:1008DA00030E046E000E056EF6DD580E0024E96E56
:1008EA00000E0120EA6EEECF7BF0EECF7CF0EECF69
:1008FA007DF0020E7B25F66E000E7C21F76E000E4F
:10090A007D21F86E0900F5CF00F00900F5CF01F05E
:10091A0000C07FF001C080F039D0030E0401225DCF
:10092A0024E222C400F0000E016E030E046E000ED3
:10093A00056EC9DD5B0E0024E96E000E0120EA6E29
:10094A00EECF7BF0EECF7CF0EECF7DF07BC0F6FFF2
:10095A007CC0F7FF7DC0F8FF0900F5CF00F000C0AA
:10096A007FF0000E0001806F02D000017E6B0ED076
:10097A0000017E6B0BD004012351010A92E023513E
:0E098A00020AA1E02351030AC8E0F2D71200CE
:10099800000E0001805D02E1080E7F5D10E27FC05D
:1009A80003F080C004F06851000A03E1010E686F8B
:1009B80005D06851010A02E1020E686F04D0080EE2
:1009C800036E000E046E4AC0E1FF4BC0E2FFE692E0
:1009D8004AC0E1FF4BC0E2FFE6904AC0E9FF4BC0C6
:1009E800EAFFEECF00F04AC0E1FF4BC0E2FF04503F
:1009F8000010E66E010E4A24E16E000E4B20E26EF6
:100A080003C0E6FF03507F5D006E04508059016EFD
:100A180000C07FF001C080F0280E6D6F040E6E6F6D
:100A28007EB12FD0035004102BE07BC0F6FF7CC0B2
:100A3800F7FF7DC0F8FF0900F5CF00F06DC0E1FFBA
:100A48006EC0E2FF00C0E6FF6D4B6E2B010E7B25EA
:100A5800006E000E7C21016E000E7D21026E00C02A
:100A68007BF001C07CF002C07DF0010E035C006EDB
:100A7800000E0458016E00C003F001C004F0D2D784
:100A880024D00350041021E07BC0E9FF7CC0EAFFBA
:100A98006DC0E1FF6EC0E2FFEECFE6FF6D4B6E2B3F
:100AA800010E7B25006E000E7C21016E00C07BF0DC
:100AB80001C07CF0010E035C006E000E0458016E4C
:0C0AC80000C003F001C004F0DCD71200F5
:100AD40020C401F0600E0116050E006E005004E003
:100AE4000132019EFF0FFBD70150000AD8A4120067
:100AF40044D000017E8F080E576E62D0CCDE60D0E9
:100B04007ADD5ED0810E00017B6F000E7C6F7E81EA
:100B1400010E7F6F7E8F54D09CDD52D008DE50D002
:100B24006B0E006E000E016E040124510026D8B035
:100B3400012A00C07BF001C07CF000017E81010E1F
:100B44007F6F7E8F3DD000017E8F6B0EE16E000EB5
:100B5400E26E04012451E126D8B0E22A22C4E6FF61
:100B64002FD0020E00019D6F000E9E6F9F6BA06B35
:100B7400A16BA26BEDDC24D023D004012151050A22
:100B8400B8E02151060ABAE02151090AB9E021511D
:100B9400080AB8E02151000ABFE02151010ABEE071
:100BA4002151030ABBE021510A0ABAE021510B0A80
:100BB400CAE02151070AD5E021510C0ADDE0DCD757
:020BC40012001D
:100BC600000197BF02D0839E01D0838E97BD02D0CD
:100BD600839C01D0838C97BB02D0839A01D0838AF1
:100BE60097B902D0839801D0838864B102D08384F8
:100BF60001D083948386F3DC839697B702D0839ED5
:100C060001D0838E97B502D0839C01D0838C97B395
:100C160002D0839A01D0838A97B102D0839801D0FB
:100C2600838864B102D0838401D083948386D7DC21
:0E0C3600839664A102D0D5DC01D0CBDC120085
:100C44006D9800017EBF49D074AF28D0020E6A6F40
:100C5400010E4A24E16E000E4B20E26EE66A4AC0A1
:100C6400E1FF4BC0E2FFC80EE66E010E7025E16E97
:100C7400000E7121E26E080EE66E020E7025E16E22
:100C8400000E7121E26E280EE66E040EE66E70C050
:100C9400E1FF71C0E2FFC80EE66E1ED0010E7025A2
:100CA400E16E000E7121E26E080EE66E020E7025F2
:100CB400E16E000E7121E26E200EE66E040EE66E09
:100CC40070C0E1FF71C0E2FF8C0EE66E4AC0E1FF26
:100CD4004BC0E2FF840EE66E82D074BF80D0040164
:100CE40020AF55D0000180510401275D04E10001CB
:100CF4007F510401265D04E226C47FF027C480F0FE
:100D040049DE010E6A6F010E7025E16E000E71213D
:100D1400E26E080EE66E020E7025E16E000E712181
:100D2400E26E200EE66E040EE66E70C0E1FF71C046
:100D3400E2FF800EE66E696B010E8225E16E000E05
:100D44008321E26E080EE66E020E8225E16E000E2D
:100D54008321E26E200EE66E040EE66E82C0E1FF91
:100D640083C0E2FF840EE66E010E696F020E4A2410
:100D7400E16E000E4B20E26E280EE66E040EE66E67
:100D84004AC0E1FF4BC0E2FFC80EE66E28D0000166
:100D9400020E6A6F010E4A24E16E000E4B20E26ED1
:100DA400E66A4AC0E1FF4BC0E2FFC80EE66E010EE0
:100DB4007025E16E000E7121E26E080EE66E020EE1
:100DC4007025E16E000E7121E26E280EE66E040EAF
:100DD400E66E70C0E1FF71C0E2FFC80EE66E12005D
:100DE400010E00018225E96E000E8321EA6EEECF2A
:100DF40000F000C09BF0000E765D02E19B51755D32
:100E040003E275C09BF00AD09B51755D006E000E25
:100E14007659016E00C075F001C076F09C6B9B5151
:100E24009C5D1CE2280EE96E040EEA6E9C51E926D4
:100E3400D8B0EA2AEECF00F072C0E1FF73C0E2FF3F
:100E440000C0E6FF010E7225006E000E7321016ED4
:100E540000C072F001C073F09C2BE1D7000E006E4D
:100E64007651005C02E17551000828E2010E7025FC
:100E7400E16E000E7121E26E080EE66E020E702520
:100E8400E16E000E7121E26E280EE66E040EE66E2F
:100E940082C0E9FF83C0EAFFEECF00F000BC07D0B8
:100EA40070C0E1FF71C0E2FFC80EE66E06D070C0EC
:100EB400E1FF71C0E2FF880EE66E2CD0010E7025B2
:100EC400E16E000E7121E26E080EE66E020E7025D0
:100ED400E16E000E7121E26E200EE66E040EE66EE7
:100EE40070C0E1FF71C0E2FF840EE66E000E006E7A
:100EF4007A1908E10050791905E10050781902E1E6
:100F04007751000A05E077C000F078C001F0B7DC43
:060F14000001749F1200B1
:100F1A0000016A6B4AC0E1FF4BC0E2FFE66A040EB9
:100F2A004A18E16E4BC0E2FF000EE21AE66A74AF9D
:100F3A0014D0000E006E7A1908E10050791905E103
:100F4A000050781902E17751000A05E077C000F0F5
:0C0F5A0078C001F091DC0001749F1200CF
:100F660000016A51020A02E13ADF1ED0D3DF69515D
:100F7600000A19E1010E7025E16E000E7121E26E84
:100F8600080EE66E020E7025E16E000E7121E26E0D
:100F9600200EE66E040EE66E70C0E1FF71C0E2FF41
:0A0FA6008C0EE66E01D0696B12009C
:100FB0004AC0E9FF4BC0EAFFEECF00F0000E00BCD4
:100FC000010E00019A6F040E4A18006E00C04AF02C
:100FD0005750080A0AE122C46EFF6E50000803E26F
:100FE000100E576E02D0040E576E00016A51010AAE
:100FF0002AE1020E4A24E16E000E4B20E26E280E1A
:10100000006E040E016E00C0E6FF01C0E6FFC4DC06
:101010006851020A07E14AC0E1FF4BC0E2FF840EBB
:10102000E66E10D09A51000A07E14AC0E1FF4BC0BA
:10103000E2FFC80EE66E06D04AC0E1FF4BC0E2FFF9
:0A104000880EE66E01D069DF120091
:10104A004AC0E9FF4BC0EAFFEECF00F000AE05D080
:10105A004AC0E1FF4BC0E2FFE66A0001686B6A6BB7
:10106A007F6B806B7E6B31DD030E00019D6F000E7E
:10107A009E6F9F6BA06BA16BA26BAAEC02F0DDDDE9
:02108A00120052
:10108C00000E0001931902E1000E921902E1016AAF
:10109C0009D092C0E9FF93C0EAFFEECF00F0016ADD
:0A10AC0000BE012A01C000F012008E
:1010B600A00E586E1D0E596E000E5A6E5F0E5B6EB8
:1010C6001E0E5C6E000E5D6EED0E5E6E1D0E5F6E8C
:1010D600000E0001606FC90E616F1D0E626F000E7B
:0410E600636F120022
:0A10EA00D08EA28AA08AF28E1200B6
:1010F40092C002F093C003F095C000F096C001F0D6
:10110400010E0001955F000E965B0050011009E08E
:1011140002C0E1FF03C0E2FF94C0E6FF024A032AD3
:04112400EBD71200F3
:0E1128000001649192C097F04ADD64811200CC
:0E113600160E6F6E9F0E6B6E7B0E696E1200B2
:1011440000019351000A12E092C000F0000E016EFB
:101154000036009001364A0E0024E96E000E01208C
:10116400EA6EEECF04F0EECF05F011D092C000F09D
:10117400000E016E003600900136460E0024E96E22
:10118400000E0120EA6EEECF04F0EECF05F0020E61
:101194000424E16E000E0520E26E94C0E6FF95C0C3
:1011A400E6FF010E0424E16E000E0520E26E96C0F7
:1011B400E6FF04C0E9FF05C0EAFFEECF00F004C07B
:1011C400E1FF05C0E2FF400E0014E66E04C0E9FF33
:1011D40005C0EAFFEECF00F004C0E1FF05C0E2FF66
:1011E400880E0010E66E9351000A1BE092C000F0D6
:1011F400000E016E0036009001364A0E0024026E85
:10120400000E0120036E02C0E9FF03C0EAFF040ED2
:10121400EE18006E02C0E1FF03C0E2FF00C0E6FF6B
:101224001AD092C000F0000E016E00360090013614
:10123400460E0024026E000E0120036E02C0E9FF78
:1012440003C0EAFF040EEE18006E02C0E1FF03C003
:10125400E2FF00C0E6FF04C000F005C001F0120088
:10126400200E575C03E36DB201D002D0006A120075
:101274004EC092F04FC093F007DF005218E190C0C7
:1012840092F0010E936F8DC094F08EC095F08FC0D4
:1012940096F056DF00C04EF001C04FF0010E00245E
:1012A400E96E000E0120EA6EEECF00F01200006A33
:0212B400120026
:1012B600086A080E0C6E003408360450085ED8B072
:0E12C60002D00826D89000360C2EF5D7120064
:1012D400086A096A100E0C6E013408360936045087
:1012E400085E0550D8A0053C095ED8B007D004506C
:1012F40008260550D8B0053C0926D890003601369A
:061304000C2EEAD71200D6
:0E130A00190E0D6E0D2EFED700000000120011
:101318005750000A0AE16D6A696A09DFE2DE6DB6B4
:0C13280002D06D86FCD7010E576E12003B
:10133400C0DE516A526A4E6A4F6A6A6A686AF9DEA6
:101344006D8C6E6A710E926F0F0E936F946B010E1B
:10135400956F000E966FCCDE6D9C8D6B080E8D5DC7
:1013640016E28DC000F0000E016E003600900136CA
:10137400003600900136000E0024E16E040E0120B8
:10138400E26EE66AE66AE66AE66A8D2BE7D7160E2F
:10139400706E68A603D0F70E6816FBD77E6B746B6D
:1013A400756B766B6D98080E4A6E040E4B6E816BEE
:0413B400576A120062
:0E13B800A50E0D6E0D2EFED7000000001200D7
:1013C600740E00019D6F000E9E6F9F6BA06BA16B4C
:1013D600A26BAAEC02F06D92699468A403D0FB0E8E
:0613E6006816FBD712009F
:1013EC0064DE516A526A4E6A4F6A6A6A686A9DDEA6
:1013FC006D8C6E6A710E9D6F0F0E9E6F9F6B010E42
:10140C00A06F000EA16F90EC02F06D9C996B080E12
:10141C00995D16E299C000F0000E016E0036009046
:10142C000136003600900136000E0024E16E040EE9
:10143C000120E26EE66AE66AE66AE66A992BE7D76D
:10144C00160E706E68A603D0F70E6816FBD77E6B6F
:10145C00746B756B766B6D98080E4A6E040E4B6E42
:06146C00816B576A1200BB
:10147200FD0E00016F15016E026AFF0E0216000ECC
:10148200021802E1000E01186BE17E0E6F15016E6B
:1014920001C003F00332039E03C000F0000E016E90
:1014A200003600900136003600900136000E00240E
:1014B200026E040E0120036E02C082F003C083F0AC
:1014C20002C070F003C071F0040E7019006E00C00B
:1014D20070F002C0E9FF03C0EAFFEECF00F000C0E7
:1014E20001F03C0E01160132019E0132019E0150B3
:1014F2000D0A34E1020E8225E96E000E8321EA6EA6
:10150200EECF01F0EECF02F00250040A02E1280E03
:10151200011822E1020E8225E16E000E8321E26EA5
:10152200200EE66E040EE66E996B080E995D14E2CB
:10153200200EE16E040EE26E9951E126D8B0E22A45
:10154200280EE96E040EEA6E9951E926D8B0EA2A0D
:10155200EECFE6FF992BE9D777DD01D003DD0DD081
:10156200FD0E6F15016E026AFF0E0216000E0218C2
:0C15720002E1040E011801E11ADD120074
:04157E00A19A12001C
:1015820010D0800E00018D6F1AD0C00E8D6F17D053
:10159200940E8D6F14D0D40E8D6F11D0800E8D6F7E
:1015A2000ED000018D51010AECE08D51020AEDE0EE
:1015B2008D51030AEDE08D51040AEDE0EFD78E055F
:1015C200006E8D51002600C08DF000C097F0E3EC54
:1015D20005F06491916B91518F25E96E000E902177
:1015E200EA6EEE520BE091518F25E96E000E9021CA
:1015F200EA6EEECF92F097DD912BEDD76481120067
:101602006984EF0E68166D82750E00019D6F000EE3
:101612009E6F9F6BA06BA16BA26BAAEC02F01200F3
:1016220070A019D082C0E9FF83C0EAFFEECF01F0BB
:101632000150800A0FE14AC0E9FF4BC0EAFFEECF3A
:1016420001F00150840A06E182C0E1FF83C0E2FF9B
:0C1652008C0EE66E7090DF0E6816120021
:10165E00010E506E86C055F087C056F088C053F00C
:10166E0089C054F060DE010E016E0150010A01E1E5
:04167E004CDE12002C
:10168200000187AF0AD029C0E1FF2AC0E2FF2D0E78
:10169200E66E861F871F864B872B86C000F087C0A9
:1016A20001F001320032019E01320032019E01320C
:1016B2000032019E01320032019E00C088F0640EA9
:1016C200046EF8DD005211E029C08BF02AC08CF0C4
:1016D200640E046E88C000F0EDDD300E00268BC073
:1016E200E1FF8CC0E2FF00C0E6FF010E29248B6FF0
:1016F200000E2A208C6F0A0E046E88C000F0DADD1C
:101702000A0E046ED7DD08C000F0300E00268BC032
:10171200E1FF8CC0E2FF00C0E6FF020E29248B6FBE
:10172200000E2A208C6F0A0E046E88C000F0C2DD03
:1017320008C000F0300E00268BC0E1FF8CC0E2FF33
:1017420000C0E6FF86C089F087C08AF00F0E8615BA
:10175200006E87C001F0000E011600C089F001C0C2
:101762008AF0710E046E020E056E68EC02F000C083
:1017720089F001C08AF0040E29248B6F000E2A2002
:101782008C6FE80E046E030E056EA3DD300E00268C
:101792008BC0E1FF8CC0E2FF00C0E6FF050E2924EA
:1017A2008B6F000E2A208C6F640E046E000E056E85
:1017B20089C000F08AC001F08CDD0A0E046E000EB2
:1017C200056E87DD08C000F009C001F0300E00266A
:1017D2008BC0E1FF8CC0E2FF00C0E6FF060E2924A9
:1017E2008B6F000E2A208C6F0A0E046E000E056E9F
:1017F20089C000F08AC001F06CDD0A0E046E000E92
:10180200056E67DD08C000F009C001F0300E002649
:101812008BC0E1FF8CC0E2FF00C0E6FF070E292467
:101822008B6F000E2A208C6F0A0E046E000E056E5E
:1018320089C000F08AC001F04CDD08C000F009C088
:1018420001F0300E00268BC0E1FF8CC0E2FF00C029
:10185200E6FF020E8D6F050E8E6F29C08FF02AC033
:0618620090F08EDE120082
:101868000900F5CFE6FF0006FBE10106F9E11200E9
:10187800959695949598959A959C959E839683941C
:10188800839E839C839A8398F4EC02F0F4EC02F034
:10189800F4EC02F0838A83888386F2EC02F0839664
:1018A800F4EC02F08386F2EC02F08396F4EC02F09A
:1018B8008386F2EC02F08396F4EC02F08398838638
:1018C800F2EC02F08396F4EC02F08386F2EC02F07C
:1018D8008396839A838E8386F2EC02F08396F4ECE7
:1018E80002F0839E83888386F2EC02F083968398C5
:1018F8008386F2EC02F08396F4EC02F08386F2EC35
:1019080002F0839683888386F2EC02F08396F4ECE7
:1019180002F083988386F2EC02F08396838E838CA0
:10192800838A83888386F2EC02F08396F4EC02F0D3
:06193800000164811200B1
:10193E0010D0800E0001866F1AD0C00E866F17D0A1
:10194E00940E866F14D0D40E866F11D0800E866FD3
:10195E000ED000018651010AECE08651020AEDE03C
:10196E008651030AEDE08651040AEDE0EFD78705B4
:10197E00006E8651002600C086F0648100C097F08C
:10198E00E3EC05F0649188C097F0E3EC05F0648118
:02199E00120035
:1019A00088C001F0010E006E015004E00036009086
:1019B000FF0FFBD700C08CF0001C00018B6F8A6BFF
:1019C00086C0E9FF87C0EAFF896B8951070824E3D5
:1019D0008B51EF16120EE9268B51EF16F2EC02F046
:1019E0008C51EF12F2EC02F0120EE95E8C51EF1402
:1019F000006E0CE089C001F0010E006E015004E0A1
:101A000000360090FF0FFBD700508A13ECEC02F079
:0E1A1000ECEC02F0892BD9D78AC000F012004E
:101A1E005750010A07E16DBA05D0686A6980698876
:101A2E00020E576E68A405D069A403D0FB0E68168B
:101A3E00C3DC6DA202D09CDD120068A018D069A094
:101A4E0016D0CDDC040E576E200E0401026F040E6C
:101A5E00036F080E016F000E0015006E00C000F43B
:101A6E008C0E0011006E00C000F4FE0E681668A801
:101A7E0005D069A803D0BEDDEF0E681668AC11D094
:101A8E0069AC0FD0730E00019D6F000E9E6F9F6BA1
:101A9E00A06B010EA16F000EA26FAAEC02F0BF0E9A
:101AAE00681668AA03D069AA01D0B4DD68A210D066
:101ABE0069A20ED0FF0E00019D6F3F0E9E6F9F6BB1
:101ACE00A06B010EA16F000EA26FAAEC02F06A6A63
:101ADE00040E575C02E24CDD120069A624D0000110
:101AEE00986B040E985D1FE268A619D06CCF6FF04C
:101AFE00F70E6816780E6F15016E0150000A02E19E
:101B0E00B1DC0CD0720E9D6F000E9E6F6F0E9F6F2C
:101B1E00000EA06FA16BA26BAAEC02F001D003D055
:0A1B2E000001982BDED724DD120021
:101B380086C08DF087C08EF088C08FF0010E00013E
:081B4800906F32EC09F012006D
:101B500088C001F0010E006E015004E000360090D4
:101B6000FF0FFBD700C08AF0001E86C0E9FF87C0C8
:101B7000EAFF0050EF16120EE9260050EF161CDCAB
:101B800000018A51EF12120EE95E85EC09F08A51CC
:101B9000EF14896F8951000A000ED8A4010E896FD5
:081BA0000BDC89C000F012000B
:101BA80088C001F0010E006E015004E0003600907C
:101BB800FF0FFBD700C08CF0001E00C08BF086C062
:101BC800E9FF87C0EAFF0050EF16120EE926000170
:101BD8008A6B8A51070816E38AC000F089C001F0B1
:101BE800005004E00132019EFF0FFBD78B51EF1626
:101BF80001A002D08C51EF1285EC09F08C51EF1244
:101C08008A2BE7D7120EE95EECEC02F0ECEC02F05E
:021C18001200B8
:101C1A0032EC0FF0C26A0F0EC112C06A070EB4127C
:101C2A00FF0E966E8D6A846A22DE010E976FE3ECD0
:101C3A0005F00C0E976FE3EC05F0010E8D6F010EA7
:101C4A008E6F2B0E8F6F000E906F96DC020E866FD2
:101C5A000D0E876FDF0E886F6DDE020E866F0E0E19
:101C6A00876F430E886F66DE000E866F050E876FDC
:101C7A00400E886F050E896FEDDC840E0001866FB9
:101C8A000F0E876F020E886F5EDF840E866F0F0E4F
:101C9A00876F020E886FCC0E896F81DF840E866F84
:101CAA000F0E876F020E886F440E896F78DF270E3A
:101CBA000D6E0D2EFED700000000840E866F0F0EEB
:101CCA00876F020E886F3FDF840E866F0F0E876F55
:101CDA00020E886FCC0E896F62DF840E866F0F0E3C
:101CEA00876F020E886FBE0E896F59DF840E866F6A
:101CFA000F0E876F020E886F4EDE00C066F0000E70
:101D0A00676F840E866F0F0E876F020E886F43DE31
:101D1A0000C003F0026A66510224006E6751032074
:101D2A00016E00C066F001C067F000C086F001C015
:101D3A0087F0A2DC656B400E655D12E2400EE16E33
:101D4A00050EE26E6551E126D8B0E22A65512924D2
:101D5A00E96E000E2A20EA6EEECFE6FF652BEBD77E
:101D6A000001400E866F050E876F400E886FDFDE1A
:101D7A00005201E1F5D7030E0B6E8A0E0C6E550E5A
:101D8A000D6E0D2EFED70C2EFCD70B2EFAD70000A7
:061D9A00000073D7FFD723
:101E640010EE29F01D0E006E010E016E300EF66E9E
:0E1E74001E0EF76E000EF86E34EC0CF012002D
:101DA0000902290001010080320904000002030039
:101DB00000000921010100012221000705810340E3
:091DC000000107050103400001C8
:101DC9002403530069007600610073002000450078
:101DD9004D004C0020002D002000480069006B00D8
:041DE9006B006F001C
:101DED00220355005300420020002D002000540016
:101DFD00650072006D006F006D006500740072006B
:021E0D0065006E
:101E0F000600FF0901A10119012940150026FF0055
:101E1F007508954081021901294075089540910276
:011E2F00C0F2
:021E30003D0073
:101E3200204453313842323020495349203A20203D
:021E420020007E
:091E44003030302E303030300017
:101E4D001201000200000008D204E110010001029D
:021E5D00000182
:041E5F00040309046B
:020000040030CA
:0E00000038CC391EFF8381FF0FC00FE00F4088
:00000001FF
