:04000000D4EF0AF03F
:1000080000C01AF001C019F002C018F003C017F0C0
:1000180004C016F005C015F0E1CF21F0E2CF22F0C0
:10002800E9CF1FF0EACF20F0F5CF1EF0F8CF1BF094
:10003800F7CF1CF0F6CF1DF03BEC0AF01EC0F5FF21
:100048001BC0F8FF1CC0F7FF1DC0F6FF1AC000F068
:1000580019C001F018C002F017C003F016C004F070
:1000680015C005F01FC0E9FF20C0EAFF21C0E1FF6D
:0600780022C0E2FF1100AE
:10007E00000E056E040E066E7DC003F0000E046EBB
:10008E000336043603900336043603907EC000F028
:10009E00000E016E0036013600900050032601500E
:1000AE00042203C001F004C002F0013601900236B2
:1000BE0001360190023601C003F002C004F0043292
:1000CE000332049E04BC048E04320332049E04BC2C
:1000DE00048E03C000F004C001F00036009001361B
:1000EE00003600900136055000260650012200C051
:1000FE0005F001C006F000C0E1FF01C0E2FFE69E80
:10010E0000017E51000A12E17DC000F0000E016E6A
:10011E000036009001362B0E0024E16E000E0120F9
:10012E00E26E05C0E6FF06C0E6FF11D07DC000F00E
:10013E00000E016E003600900136450E0024E16E71
:10014E00000E0120E26E05C0E6FF06C0E6FF05C008
:10015E00E1FF06C0E2FFE69C040E0524E16E000EF0
:08016E000620E26EE68C12008F
:0E017600800E00017D11006E00C026F0120008
:100184007DC023F07EC024F07FC027F080C028F01B
:10019400800E00018111006E008000C026F0120064
:1001A4007DC023F07EC024F07FC025F080C027F0FE
:1001B40081C028F0800E00018211006E00C026F07C
:0201C400120027
:1001C60020C401F01F0E01160150010AD8A4120026
:1001D60004012451000AD8A412002151060A38E16C
:1001E6002DD03050010A13E1080E00017D6F160E66
:1001F6007E6F000E7F6F120E7D27000E7E237F23FB
:10020600090E806F000E816F400E826FC8DF20D00E
:100216003050010A0EE10001310E7D6F160E7E6F21
:10022600000E7F6F210E806F000E816F400E826F71
:10023600B6DF0ED000017D6B9BDF0AD0040123518F
:10024600210ACFE02351220AE3E02351230AF2E0F8
:1002560020C401F0600E0116050E006E005004E089
:100266000132019EFF0FFBD70150010AD8A41200EC
:1002760027D039D038D0550E00017D6F000E7E6F25
:10028600010E7F6F000E806F400E816F78DF2BD0DE
:1002960000017D6B6DDF23C455F025D00001540E9F
:1002A6007D6F000E7E6F010E7F6F000E806F816B7B
:1002B60066DF19D000017D6B5BDF22C454F013D0DA
:1002C60004012151010AD5E02151090AD3E0215147
:1002D600020AD1E021510A0ADBE02151030ADEE0DD
:0802E60021510B0AE7E01200B0
:1002EE00700EE16E0F0EE26E00017851E126D8B06D
:1002FE00E22A79C0E6FF79A504D078C07DF07E6B46
:10030E00B7DE79A305D078C07DF0010E7E6FB0DE2A
:02031E001200CB
:1003200000017951000A12E078C000F0000E016E61
:10033000003600900136450E0024E96E000E0120C3
:10034000EA6EEECF04F0EECF05F011D078C000F0E9
:10035000000E016E0036009001362B0E0024E96E6F
:10036000000E0120EA6EEECF04F0EECF05F0020E93
:100370000424E16E000E0520E26E7AC0E6FF7BC029
:10038000E6FF010E0424E16E000E0520E26E7CC043
:10039000E6FF04C0E9FF05C0EAFFEECF00F004C0AD
:1003A000E1FF05C0E2FF400E0014E66E04C0E9FF65
:1003B00005C0EAFFEECF00F004C0E1FF05C0E2FF98
:1003C000880E0010E66E7951000A1BE078C000F03C
:1003D000000E016E003600900136450E0024026EBC
:1003E000000E0120036E02C0E9FF03C0EAFF040E05
:1003F000EE18006E02C0E1FF03C0E2FF00C0E6FF9E
:100400001AD078C000F0000E016E00360090013660
:100410002B0E0024026E000E0120036E02C0E9FFC5
:1004200003C0EAFF040EEE18006E02C0E1FF03C035
:10043000E2FF00C0E6FF04C000F005C001F01200BA
:100440002F5215E0010E0001786F1E0E796F4FDFFD
:10045000010E786F796B49C07AF04AC07BF0400E8C
:100460007C6F5EDF00C04BF001C04CF014D0000187
:10047000010E786F1E0E796F3ADF010E786F796B7F
:1004800049C07AF04AC07BF0400E7C6F49DF00C063
:080490004BF001C04CF012001A
:080498002F5201E094DE120076
:1004A00072C002F073C003F075C000F076C001F0B6
:1004B000010E0001755F000E765B0050011009E02F
:1004C00002C0E1FF03C0E2FF74C0E6FF024A032A54
:0404D000EBD7120054
:1004D4000CD0B4DF3CD03BD0DDDF39D038D037D0BE
:1004E40036D035D0000033D032D0000E000173195D
:1004F40002E1010E7219EDE0000E731902E1020E21
:100504007219E9E0000E731902E1030E7219E4E0B6
:100514007351000A02E1730E7219E0E07351000A8C
:1005240002E1750E7219DBE07351000A02E1740EE8
:100534007219D6E073513F0A02E1FF0E7219D1E03D
:100544007351000A02E1720E7219CCE0CDD7010E8C
:04055400006E120023
:100558000B6A0A6A096A00500402F4CF09F0F3CF63
:1005680008F001500502F4CF0BF0F3CF0AF0005069
:100578000502F3500926F4500A22E86A0B220150BA
:100588000402F3500926F4500A22E86A0B2208C034
:1005980000F009C001F00AC002F00BC003F012001D
:1005A800F250026EF29E0500FF6A0150FE6E005086
:0805B800FD6E02BEF28E12007E
:1005C00004012051800AD8A471D0C00E266E64D0D8
:1005D000820E006E160E016E000E026E00C023F039
:1005E00001C024F002C025F0120E276E000E286E06
:1005F0005DD022C400F0000E016E030E046E000EEA
:10060000056EAADF5D0E0024E96E000E0120EA6E81
:10061000EECF23F0EECF24F0EECF25F0020E232410
:10062000F66E000E2420F76E000E2520F86E0900ED
:10063000F5CF00F00900F5CF01F000C027F001C0B0
:1006400028F034D0030E225D23E222C400F0000E15
:10065000016E030E046E000E056E7EDF3C0E00245C
:10066000E96E000E0120EA6EEECF23F0EECF24F00B
:10067000EECF25F023C0F6FF24C0F7FF25C0F8FF1A
:100680000900F5CF00F000C027F0000E286E01D061
:10069000266A0CD0266A0AD02351010A99E0235118
:0E06A000020AA7E02351030ACDE0F4D71200AE
:1006AE00268E710E0001726F0F0E736F746B010E3A
:1006BE00756F000E766FEDDE500E726F000E736F5B
:1006CE00746B010E756F000E766FE3DE22C430F090
:1006DE003050000A03E1100E3A6E0FD0200E3A6E23
:1006EE00010E726F000E736F300E746F000E756F09
:0C06FE00010E766F000E776FE6DE120032
:10070A00000E285C02E1080E275C10E227C003F005
:10071A0028C004F04E50000A03E1010E4E6E05D0C7
:10072A004E50010A02E1020E4E6E04D0080E036E0C
:10073A00000E046E45C0E1FF46C0E2FFE69245C0E6
:10074A00E1FF46C0E2FFE69045C0E9FF46C0EAFF86
:10075A00EECF00F045C0E1FF46C0E2FF04500010B2
:10076A00E66E010E4524E16E000E4620E26E03C0DD
:10077A00E6FF0350275C006E04502858016E00C043
:10078A0027F001C028F0280E526E040E536E26B0D0
:10079A002FD0035004102BE023C0F6FF24C0F7FF2C
:1007AA0025C0F8FF0900F5CF00F052C0E1FF53C0A1
:1007BA00E2FF00C0E6FF524A532A010E2324006ECC
:1007CA00000E2420016E000E2520026E00C023F0C8
:1007DA0001C024F002C025F0010E035C006E000E79
:1007EA000458016E00C003F001C004F0D2D724D02F
:1007FA000350041021E023C0E9FF24C0EAFF52C0DD
:10080A00E1FF53C0E2FFEECFE6FF524A532A010E40
:10081A002324006E000E2420016E00C023F001C0C4
:10082A0024F0010E035C006E000E0458016E00C035
:0A083A0003F001C004F0DCD7120047
:1008440004012251010A0FE120C401F01F0E011618
:100854000150000A08E1268E2151030A03E1010E2A
:100864004D6E01D04D6A2251000AD8A489D020C40B
:1008740001F01F0E01160150020AD8A481D024C42D
:1008840001F00F0E01160150000AD8B479D0268E5B
:1008940024BF16D024C403F00F0E031603C000F0C7
:1008A400000E016E0036009001362B0E0024E96E16
:1008B400000E0120EA6EEECF04F0EECF05F015D065
:1008C40024C403F00F0E031603C000F0000E016EE3
:1008D400003600900136450E0024E96E000E01201A
:1008E400EA6EEECF04F0EECF05F02151030A07E1E2
:1008F40004C0E1FF05C0E2FF840EE66E41D024C4CB
:1009040000F00F0E0016700E026E0F0E036E0050F4
:100914000226D8B0032A02C0E9FF03C0EAFFEECFE3
:1009240000F0EECF01F0009002C0E1FF03C0E2FF4F
:1009340000C0E6FF01C0E6FF24AF11D004C0E1FF10
:1009440005C0E2FFE66A040E0418006E00C004F05D
:1009540004C0E1FF05C0E2FF400EE66E11D004C002
:10096400E1FF05C0E2FF880EE66E040E0418006E77
:1009740000C004F004C0E1FF05C0E2FFC80EE66E4B
:0209840012005F
:100986000401286B296B42D0268E28814D50010A1E
:10099600D8B4288350D0268E4ED0268E24BF16D0AB
:1009A60024C403F00F0E031603C000F0000E016E00
:1009B6000036009001362B0E0024E96E000E012051
:1009C600EA6EEECF04F0EECF05F015D024C403F0A6
:1009D6000F0E031603C000F0000E016E00360090E5
:1009E6000136450E0024E96E000E0120EA6EEECFB8
:1009F60004F0EECF05F004C0E9FF05C0EAFFEECF34
:100A060001F001A402D0010E286F15D020C401F018
:100A16001F0E01160150000AB7E020C401F01F0E98
:100A260001160150010AB7E020C401F01F0E01169D
:100A36000150020AB2E026AE07D0280E236E040E3D
:0A0A4600246E2680020E276E1200B7
:100A5000586A45C0E1FF46C0E2FFE66A040E451849
:100A6000E16E46C0E2FF000EE21AE66A33AE13D032
:100A7000000E006E391808E10050381805E10050EA
:100A8000371802E13650000A05E036C000F037C0E2
:080A900001F08ADD339E120023
:100A9800010E5B24E96E000E5C20EA6EEECF00F0DA
:100AA80000C070F0000E355C03E100017051345C49
:100AB80003E234C070F00BD000017051345C006E5A
:100AC800000E3558016E00C034F001C035F0000149
:100AD800716B7051715D1CE2280EE96E040EEA6EAE
:100AE8007151E926D8B0EA2AEECF00F031C0E1FF13
:100AF80032C0E2FF00C0E6FF010E3124006E000E96
:100B08003220016E00C031F001C032F0712BE1D704
:100B1800000E006E3550005C02E13450000828E2F7
:100B2800010E5924E16E000E5A20E26E080EE66EA0
:100B3800020E5924E16E000E5A20E26E280EE66E6F
:100B4800040EE66E5BC0E9FF5CC0EAFFEECF00F082
:100B580000BC07D059C0E1FF5AC0E2FFC80EE66EDC
:100B680006D059C0E1FF5AC0E2FF880EE66E2BD0CE
:100B7800010E5924E16E000E5A20E26E080EE66E50
:100B8800020E5924E16E000E5A20E26E200EE66E27
:100B9800040EE66E59C0E1FF5AC0E2FF840EE66E0D
:100BA800000E006E391808E10050381805E10050B1
:100BB800371802E13650000A05E036C000F037C0A9
:080BC80001F0EEDC339E120087
:100BD00020C401F0600E0116050E006E005004E006
:100BE0000132019EFF0FFBD70150000AD8A412006A
:100BF0003ED0268E080E3A6E5DD0E2DC5BD057DD2B
:100C000059D0300E236E000E246E2680010E276E02
:100C1000268E50D0B8DE4ED015DE4CD0500E006E71
:100C2000000E016E24510026D8B0012A00C023F026
:100C300001C024F02680010E276E268E3BD0268E22
:100C4000500EE16E000EE26E2451E126D8B0E22A89
:100C500022C4E6FF2FD0020E0001726F000E736FE8
:100C6000746B756B766B776B35DC24D023D0040105
:100C70002151050ABEE02151060ABFE02151090AAF
:100C8000BEE02151080ABDE02151000AC3E0215114
:100C9000010AC2E02151030ABFE021510A0ABEE065
:100CA00021510B0ACCE02151070AD5E021510C0A51
:060CB000DDE0DCD71200BC
:100CB6006D9826BE49D033AE28D0020E586E010E6E
:100CC6004524E16E000E4620E26EE66A45C0E1FF6D
:100CD60046C0E2FFC80EE66E010E5924E16E000E14
:100CE6005A20E26E080EE66E020E5924E16E000EE0
:100CF6005A20E26E280EE66E040EE66E59C0E1FF3B
:100D06005AC0E2FFC80EE66E1ED0010E5924E16EEF
:100D1600000E5A20E26E080EE66E020E5924E16EAF
:100D2600000E5A20E26E200EE66E040EE66E59C0E4
:100D3600E1FF5AC0E2FF8C0EE66E45C0E1FF46C0F9
:100D4600E2FF840EE66E7DD033BE7BD0040120AF79
:100D560051D02850275D02E12750265D04E226C4C3
:100D660027F027C428F0CEDC010E586E010E592458
:100D7600E16E000E5A20E26E080EE66E020E59244F
:100D8600E16E000E5A20E26E200EE66E040EE66E4E
:100D960059C0E1FF5AC0E2FF800EE66E4F6A010EAF
:100DA6005B24E16E000E5C20E26E080EE66E020E1B
:100DB6005B24E16E000E5C20E26E200EE66E040EF1
:100DC600E66E5BC0E1FF5CC0E2FF840EE66E010EDC
:100DD6004F6E020E4524E16E000E4620E26E280E8E
:100DE600E66E040EE66E45C0E1FF46C0E2FFC80EA1
:100DF600E66E27D0020E586E010E4524E16E000EF7
:100E06004620E26EE66A45C0E1FF46C0E2FFC80E34
:100E1600E66E010E5924E16E000E5A20E26E080EAF
:100E2600E66E020E5924E16E000E5A20E26E280E7E
:100E3600E66E040EE66E59C0E1FF5AC0E2FFC80E28
:040E4600E66E120042
:100E4A005850020A02E123DE1ED0FDDD4F50000A8F
:100E5A0019E1010E5924E16E000E5A20E26E080EC5
:100E6A00E66E020E5924E16E000E5A20E26E200E42
:100E7A00E66E040EE66E59C0E1FF5AC0E2FF8C0E20
:080E8A00E66E01D04F6A120070
:100E9200000E0001691902E1000E681902E1016AFF
:100EA20009D068C0E9FF69C0EAFFEECF00F0016A2D
:0A0EB20000BE012A01C000F012008A
:100EBC0000016951000A12E068C000F0000E016EDA
:100ECC00003600900136450E0024E96E000E01201C
:100EDC00EA6EEECF04F0EECF05F011D068C000F052
:100EEC00000E016E0036009001362B0E0024E96EC8
:100EFC00000E0120EA6EEECF04F0EECF05F0020EEC
:100F0C000424E16E000E0520E26E6AC0E6FF6BC0A1
:100F1C00E6FF010E0424E16E000E0520E26E6CC0AB
:100F2C00E6FF04C0E9FF05C0EAFFEECF00F004C005
:100F3C00E1FF05C0E2FF400E0014E66E04C0E9FFBD
:100F4C0005C0EAFFEECF00F004C0E1FF05C0E2FFF0
:100F5C00880E0010E66E6951000A1BE068C000F0B4
:100F6C00000E016E003600900136450E0024026E14
:100F7C00000E0120036E02C0E9FF03C0EAFF040E5D
:100F8C00EE18006E02C0E1FF03C0E2FF00C0E6FFF6
:100F9C001AD068C000F0000E016E003600900136C9
:100FAC002B0E0024026E000E0120036E02C0E9FF1E
:100FBC0003C0EAFF040EEE18006E02C0E1FF03C08E
:100FCC00E2FF00C0E6FF04C000F005C001F0120013
:100FDC00080E5D6E160E5E6E000E5F6E940E3C6E0D
:100FEC00160E3D6E000E3E6E6E0E3F6E160E406E71
:100FFC00000E416E520E426E160E436E000E446E83
:02100C001200D0
:10100E0068C002F069C003F06BC000F06CC001F064
:10101E00010E00016B5F000E6C5B0050011009E0C9
:10102E0002C0E1FF03C0E2FF6AC0E6FF024A032AE4
:04103E00EBD71200DA
:0A104200D08EA28AA08AF28E12005E
:0E104C00160E6F6E9F0E6B6E7B0E696E12009D
:10105A0045C0E9FF46C0EAFFEECF00F000AE05D07A
:10106A0045C0E1FF46C0E2FFE66A4E6A586A276A4F
:10107A00286A266AA8DD030E0001726F000E736FDC
:10108A00746B756B766B776B6AEC02F00FDE12008D
:10109A0045C0E9FF46C0EAFFEECF00F0000E00BCF3
:1010AA00010E00016F6F040E4518006E00C045F076
:1010BA003A50080A0AE122C46EFF6E50000803E2A1
:1010CA00100E3A6E02D0040E3A6E5850010A2CE104
:1010DA00020E4524E16E000E4620E26E280E006ED6
:1010EA00040E016E00C0E6FF01C0E6FF85EC03F0C6
:1010FA004E50020A07E145C0E1FF46C0E2FF840EF6
:10110A00E66E11D000016F51000A07E145C0E1FF08
:10111A0046C0E2FFC80EE66E06D045C0E1FF46C0F3
:0C112A00E2FF880EE66E01D08EDC1200A1
:10113600740E0001726F000E736F746B756B766BB5
:10114600776B6AEC02F06D92699468A403D0FB0E8B
:061156006816FBD7120031
:04115C00A19A120042
:101160003A50000A0AE16D6A696A70DF6ADF6DB69B
:0C11700002D06D86FCD7010E3A6E120012
:10117C002FDF4B6A4C6A296A2A6A6A6A686A60DFDE
:10118C006D8C6E6A710E0001686F0F0E696F6A6B61
:10119C00010E6B6F000E6C6F34DF6D9C646B080E70
:1011AC00645D16E264C000F0000E016E0036009023
:1011BC000136003600900136000E0024E16E040E5C
:1011CC000120E26EE66AE66AE66AE66A642BE7D715
:1011DC00160E706E68A603D0F70E6816FBD7266A3B
:1011EC00336A346A356A6D98080E456E040E466E85
:0611FC00306A3A6A12009D
:10120200200E3A5C03E36DB201D002D0006A1200F4
:101212004BC068F04CC069F03BDE005217E167C07A
:1012220068F0696B64C06AF065C06BF066C06CF010
:1012320044DE00C04BF001C04CF0010E0024E96E08
:10124200000E0120EA6EEECF00F01200006A1200DA
:101252006984EF0E68166D82750E0001726F000EC2
:10126200736F746B756B766B776B6AEC02F01200BE
:10127200B4DE4B6A4C6A296A2A6A6A6A686AE5DEDF
:101282006D8C6E6A710E0001726F0F0E736F746B4C
:10129200010E756F000E766F50EC02F06D9C6E6B56
:1012A200080E6E5D16E26EC000F0000E016E003692
:1012B20000900136003600900136000E0024E16EE7
:1012C200040E0120E26EE66AE66AE66AE66A6E2BC0
:1012D200E7D7160E706E68A603D0F70E6816FBD716
:1012E200266A336A346A356A6D98080E456E040EB2
:0812F200466E306A3A6A1200F0
:1012FA00FD0E5114016E026AFF0E0216000E02184C
:10130A0002E1000E01186CE17E0E5114016E01C05B
:10131A0003F00332039E03C000F0000E016E003694
:10132A0000900136003600900136000E0024026E4D
:10133A00040E0120036E02C05BF003C05CF002C021
:10134A0059F003C05AF0040E5918006E00C059F043
:10135A0002C0E9FF03C0EAFFEECF00F000C001F0CF
:10136A003C0E01160132019E0132019E01500D0A06
:10137A0035E1020E5B24E96E000E5C20EA6EEECFC8
:10138A0001F0EECF02F00250040A02E1280E011821
:10139A0023E1020E5B24E16E000E5C20E26E200E59
:1013AA00E66E040EE66E00016E6B080E6E5D14E2C8
:1013BA00200EE16E040EE26E6E51E126D8B0E22AEA
:1013CA00280EE96E040EEA6E6E51E926D8B0EA2AB2
:1013DA00EECFE6FF6E2BE9D73BDE01D031DD0DD033
:1013EA00FD0E5114016E026AFF0E0216000E02185B
:0C13FA0002E1040E011801E14BDE1200BC
:1014060070A019D05BC0E9FF5CC0EAFFEECF01F027
:101416000150800A0FE145C0E9FF46C0EAFFEECF62
:1014260001F00150840A06E15BC0E1FF5CC0E2FF07
:0C1436008C0EE66E7090DF0E681612003F
:101442000900F5CFE6FF0006FBE10106F9E1120013
:10145200010E2F6E60C049F061C04AF062C056F0C2
:1014620063C057F08ADE010E016E0150010A01E1EC
:0414720076DE120010
:101476003A50010A07E16DBA05D0686A6980698841
:10148600020E3A6E68A405D069A403D0FB0E681656
:101496004FDE6DA202D05FDE120068A018D069A0F0
:1014A60016D0E4DE040E3A6E200E0401026F040E1E
:1014B600036F080E016F000E0015006E00C000F4E9
:1014C6008C0E0011006E00C000F4FE0E681668A8AF
:1014D60005D069A803D0BADEEF0E681668AC11D045
:1014E60069AC0FD0730E0001726F000E736F746BD0
:1014F600756B010E766F000E776F6AEC02F0BF0E09
:10150600681668AA03D069AA01D07ADF68A210D04B
:1015160069A20ED0FF0E0001726F3F0E736F746BDF
:10152600756B010E766F000E776F6AEC02F06A6AD1
:10153600040E3A5C02E20FDE120069A625D0000115
:101546006D6B040E6D5D20E268A61AD06CCF51F06B
:10155600F70E6816780E5114016E0150000A02E16A
:10156600C9DE0DD0720E0001726F000E736F510E40
:10157600746F000E756F766B776B6AEC02F001D0B4
:0C15860003D000016D2BDDD7E6DD120064
:1015920049C064F04AC065F0400E0001666F010E5A
:0615A200676F2EDE12004F
:1015A8000F0EC112070EB412936A816A000E000171
:1015B800606F050E616F400E626F050E636F45DF49
:1015C800E4DF005201E1FCD73B6A400E3B5C14E2C9
:1015D800400EE16E050EE26E3B50E126D8B0E22ADD
:1015E800000EE96E050EEA6E3B50E926D8B0EA2AED
:1015F800EECFE6FF3B2AE9D700C581FFE1D7FFD749
:1016080009022900010100803209040000020300D8
:101618000000092101010001222100070581034082
:0916280000010705010340000167
:101631000600FF0901A10119012940150026FF003B
:10164100750895408102190129407508954091025C
:01165100C0D8
:101652001C03480069006B006B006F0020005500FE
:0C166200530042002000480049004400F2
:10166E0014035300690076006100730020004500EA
:04167E004D004C00CF
:1016820012010002000000083412341201000102AB
:02169200000155
:04169400040309043E
:020000040030CA
:0E00000038CE391EFF8381FF0FC00FE00F4086
:00000001FF
