:04000000BCEF0BF056
:1000080000C01AF001C019F002C018F003C017F0C0
:1000180004C016F005C015F0E1CF21F0E2CF22F0C0
:10002800E9CF1FF0EACF20F0F5CF1EF0F8CF1BF094
:10003800F7CF1CF0F6CF1DF00FEC0BF01EC0F5FF4C
:100048001BC0F8FF1CC0F7FF1DC0F6FF1AC000F068
:1000580019C001F018C002F017C003F016C004F070
:1000680015C005F01FC0E9FF20C0EAFF21C0E1FF6D
:0600780022C0E2FF1100AE
:10007E00000E056E040E066E8EC003F0000E046EAA
:10008E000336043603900336043603908FC000F017
:10009E00000E016E0036013600900050032601500E
:1000AE00042203C001F004C002F0013601900236B2
:1000BE0001360190023601C003F002C004F0043292
:1000CE000332049E04BC048E04320332049E04BC2C
:1000DE00048E03C000F004C001F00036009001361B
:1000EE00003600900136055000260650012200C051
:1000FE0005F001C006F000C0E1FF01C0E2FFE69E80
:10010E0000018F51000A12E18EC000F0000E016E48
:10011E00003600900136510E0024E16E000E0120D3
:10012E00E26E05C0E6FF06C0E6FF11D08EC000F0FD
:10013E00000E016E003600900136680E0024E16E4E
:10014E00000E0120E26E05C0E6FF06C0E6FF05C008
:10015E00E1FF06C0E2FFE69C040E0524E16E000EF0
:08016E000620E26EE68C12008F
:0E017600800E00018E11006E00C04CF01200D1
:100184008EC049F08FC04AF090C04DF091C04EF03F
:10019400800E00019211006E008000C04CF012002D
:1001A4008EC049F08FC04AF090C04BF091C04DF022
:1001B40092C04EF0800E00019311006E00C04CF00E
:0201C400120027
:1001C60020C401F01F0E01160150010AD8A4120026
:1001D60004012451000AD8A412002151060A38E16C
:1001E6002DD000016151010A12E1560E8E6F180ED4
:1001F6008F6F000E906F120E8E27000E8F239023A6
:10020600090E916F000E926F400E936FC8DF20D0DB
:1002160000016151010A0DE17F0E8E6F180E8F6F7E
:10022600000E906F210E916F000E926F400E936F2D
:10023600B6DF0ED000018E6B9BDF0AD0040123517E
:10024600210ACFE02351220AE3E02351230AF2E0F8
:1002560020C401F0600E0116050E006E005004E089
:100266000132019EFF0FFBD70150010AD8A41200EC
:1002760027D039D038D0670E00018E6F000E8F6FF1
:10028600010E906F000E916F400E926F78DF2BD0AB
:1002960000018E6B6DDF23C467F025D00001620E6E
:1002A6008E6F000E8F6F010E906F000E916F926B26
:1002B60066DF19D000018E6B5BDF22C462F013D0BB
:1002C60004012151010AD5E02151090AD3E0215147
:1002D600020AD1E021510A0ADBE02151030ADEE0DD
:0802E60021510B0AE7E01200B0
:1002EE00700EE16E0F0EE26E00018951E126D8B05C
:1002FE00E22A8AC0E6FF8AA504D089C08EF08F6BF1
:10030E00B7DE8AA305D089C08EF0010E8F6FB0DEE6
:02031E001200CB
:1003200000018A51000A12E089C000F0000E016E3F
:10033000003600900136680E0024E96E000E0120A0
:10034000EA6EEECF04F0EECF05F011D089C000F0D8
:10035000000E016E003600900136510E0024E96E49
:10036000000E0120EA6EEECF04F0EECF05F0020E93
:100370000424E16E000E0520E26E8BC0E6FF8CC007
:10038000E6FF010E0424E16E000E0520E26E8DC032
:10039000E6FF04C0E9FF05C0EAFFEECF00F004C0AD
:1003A000E1FF05C0E2FF400E0014E66E04C0E9FF65
:1003B00005C0EAFFEECF00F004C0E1FF05C0E2FF98
:1003C000880E0010E66E8A51000A1BE089C000F01A
:1003D000000E016E003600900136680E0024026E99
:1003E000000E0120036E02C0E9FF03C0EAFF040E05
:1003F000EE18006E02C0E1FF03C0E2FF00C0E6FF9E
:100400001AD089C000F0000E016E0036009001364F
:10041000510E0024026E000E0120036E02C0E9FF9F
:1004200003C0EAFF040EEE18006E02C0E1FF03C035
:10043000E2FF00C0E6FF04C000F005C001F01200BA
:100440000001605314E0010E896F1E0E8A6F4FDFAA
:10045000010E896F8A6B65C08BF066C08CF0400E10
:100460008D6F5EDF00C06CF001C06DF013D0010E27
:10047000896F1E0E8A6F3BDF010E896F8A6B65C024
:100480008BF066C08CF0400E8D6F4ADF00C06CF0C0
:0604900001C06DF0120036
:0A0496000001605301E094DE120043
:1004A0000CD0CEDF3CD03BD0F6DF39D038D037D0BF
:1004B00036D035D0000033D032D0000E0001841980
:1004C00002E1010E8319EDE0000E841902E1020E33
:1004D0008319E9E0000E841902E1030E8319E4E0B8
:1004E0008451000A02E1730E8319E0E08451000A8E
:1004F00002E1750E8319DBE08451000A02E1740EFB
:100500008319D6E084513F0A02E1FF0E8319D1E03E
:100510008451000A02E1720E8319CCE0CDD7010E9E
:04052000006E120057
:1005240083C002F084C003F086C000F087C001F0ED
:10053400010E0001865F000E875B0050011009E088
:1005440002C0E1FF03C0E2FF85C0E6FF024A032ABE
:04055400EBD71200CF
:100558000B6A0A6A096A00500402F4CF09F0F3CF63
:1005680008F001500502F4CF0BF0F3CF0AF0005069
:100578000502F3500926F4500A22E86A0B220150BA
:100588000402F3500926F4500A22E86A0B2208C034
:1005980000F009C001F00AC002F00BC003F012001D
:1005A8000401286B296B42D04C8E28813650010AF1
:1005B800D8B4288350D04C8E4ED04C8E24BF16D041
:1005C80024C403F00F0E031603C000F0000E016EE2
:1005D800003600900136510E0024E96E000E01200D
:1005E800EA6EEECF04F0EECF05F015D024C403F088
:1005F8000F0E031603C000F0000E016E00360090C7
:100608000136680E0024E96E000E0120EA6EEECF76
:1006180004F0EECF05F004C0E9FF05C0EAFFEECF15
:1006280001F001A402D0010E286F15D020C401F0FA
:100638001F0E01160150000AB7E020C401F01F0E7A
:1006480001160150010AB7E020C401F01F0E01167F
:100658000150020AB2E04CAE07D0280E496E040ED3
:0A0668004A6E4C80020E4D6E120027
:10067200F250026EF29E0500FF6A0150FE6E0050BB
:08068200FD6E02BEF28E1200B3
:10068A00000E4E5C02E1080E4D5C10E24DC003F014
:10069A004EC004F03E50000A03E1010E3E6E05D042
:1006AA003E50010A02E1020E3E6E04D0080E036EAD
:1006BA00000E046E68C0E1FF69C0E2FFE69268C0FE
:1006CA00E1FF69C0E2FFE69068C0E9FF69C0EAFF9E
:1006DA00EECF00F068C0E1FF69C0E2FF04500010ED
:1006EA00E66E010E00016825E16E000E6921E26ED8
:1006FA0003C0E6FF03504D5C006E04504E58016E75
:10070A0000C04DF001C04EF0280E376E040E386E50
:10071A004CB02FD0035004102BE049C0F6FF4AC05A
:10072A00F7FF4BC0F8FF0900F5CF00F037C0E1FF33
:10073A0038C0E2FF00C0E6FF374A382A010E4924D2
:10074A00006E000E4A20016E000E4B20026E00C0A1
:10075A0049F001C04AF002C04BF0010E035C006E82
:10076A00000E0458016E00C003F001C004F0D2D795
:10077A0024D00350041021E049C0E9FF4AC0EAFF2F
:10078A0037C0E1FF38C0E2FFEECFE6FF374A382A2A
:10079A00010E4924006E000E4A20016E00C049F085
:1007AA0001C04AF0010E035C006E000E0458016E8F
:0C07BA0000C003F001C004F0DCD7120006
:1007C60004012251010A0FE120C401F01F0E011697
:1007D6000150000A08E14C8E2151030A03E1010E83
:1007E600366E01D0366A2251000AD8A489D020C4B8
:1007F60001F01F0E01160150020AD8A481D024C4AC
:1008060001F00F0E01160150000AD8B479D04C8EB3
:1008160024BF16D024C403F00F0E031603C000F045
:10082600000E016E003600900136510E0024E96E6E
:10083600000E0120EA6EEECF04F0EECF05F015D0E3
:1008460024C403F00F0E031603C000F0000E016E61
:10085600003600900136680E0024E96E000E012075
:10086600EA6EEECF04F0EECF05F02151030A07E160
:1008760004C0E1FF05C0E2FF840EE66E41D024C449
:1008860000F00F0E0016700E026E0F0E036E005073
:100896000226D8B0032A02C0E9FF03C0EAFFEECF62
:1008A60000F0EECF01F0009002C0E1FF03C0E2FFCE
:1008B60000C0E6FF01C0E6FF24AF11D004C0E1FF8F
:1008C60005C0E2FFE66A040E0418006E00C004F0DC
:1008D60004C0E1FF05C0E2FF400EE66E11D004C081
:1008E600E1FF05C0E2FF880EE66E040E0418006EF6
:1008F60000C004F004C0E1FF05C0E2FFC80EE66ECA
:020906001200DD
:100908004C8E710E0001836F0F0E846F856B010E84
:10091800866F000E876F02DE6F0E836F000E846F86
:10092800856B010E866F000E876FF8DD22C461F0BB
:100938006151000A03E1100E6E6F0FD0200E6E6F2A
:10094800010E836F000E846F610E856F000E866F37
:0C095800010E876F000E886F9FDD1200FB
:1009640004012051800AD8A471D0C00E4C6E64D00A
:10097400CA0E006E180E016E000E026E00C049F021
:1009840001C04AF002C04BF0120E4D6E000E4E6EC6
:100994005DD022C400F0000E016E030E046E000E42
:1009A400056ED8DD3A0E0024E96E000E0120EA6ED1
:1009B400EECF49F0EECF4AF0EECF4BF0020E4924D1
:1009C400F66E000E4A20F76E000E4B20F86E0900FA
:1009D400F5CF00F00900F5CF01F000C04DF001C0E3
:1009E4004EF034D0030E225D23E222C400F0000E48
:1009F400016E030E046E000E056EACDD3F0E002486
:100A0400E96E000E0120EA6EEECF49F0EECF4AF017
:100A1400EECF4BF049C0F6FF4AC0F7FF4BC0F8FFDA
:100A24000900F5CF00F000C04DF0000E4E6E01D06D
:100A34004C6A0CD04C6A0AD02351010A99E0235124
:0E0A4400020AA7E02351030ACDE0F4D7120006
:100A520020C401F0600E0116050E006E005004E085
:100A62000132019EFF0FFBD70150000AD8A41200E9
:100A72003FD04C8E080E00016E6F5DD072DF5BD0EE
:100A820042DF59D0610E496E000E4A6E4C80010E53
:100A92004D6E4C8E50D087DD4ED094DE4CD06F0E12
:100AA200006E000E016E24510026D8B0012A00C04B
:100AB20049F001C04AF04C80010E4D6E4C8E3BD085
:100AC2004C8E6F0EE16E000EE26E2451E126D8B01C
:100AD200E22A22C4E6FF2FD0020E0001836F000E2D
:100AE200846F856B866B876B886BD9DC24D023D0AF
:100AF20004012151050ABDE02151060ABFE021513E
:100B0200090ABEE02151080ABDE02151000AC3E0F2
:100B12002151010AC2E02151030ABFE021510A0A10
:100B2200BEE021510B0ACCE02151070AD5E0215148
:080B32000C0ADDE0DCD7120023
:100B3A006D984CBE4AD057AE29D0020E326E010EC5
:100B4A0000016825E16E000E6921E26EE66A68C05E
:100B5A00E1FF69C0E2FFC80EE66E010E3024E16EC5
:100B6A00000E3120E26E080EE66E020E3024E16EAF
:100B7A00000E3120E26E280EE66E040EE66E30C0DC
:100B8A00E1FF31C0E2FFC80EE66E1ED0010E30242E
:100B9A00E16E000E3120E26E080EE66E020E30247F
:100BAA00E16E000E3120E26E200EE66E040EE66E55
:100BBA0030C0E1FF31C0E2FF8C0EE66E68C0E1FF93
:100BCA0069C0E2FF840EE66E7FD057BE7DD0040175
:100BDA0020AF52D04E50275D02E14D50265D04E20F
:100BEA0026C44DF027C44EF04BDD010E326E010EC5
:100BFA003024E16E000E3120E26E080EE66E020E1F
:100C0A003024E16E000E3120E26E200EE66E040EF4
:100C1A00E66E30C0E1FF31C0E2FF800EE66E3D6A4B
:100C2A00010E00016325E16E000E6421E26E080EDA
:100C3A00E66E020E6325E16E000E6421E26E200E5E
:100C4A00E66E040EE66E63C0E1FF64C0E2FF840E46
:100C5A00E66E010E3D6E020E6825E16E000E6921F8
:100C6A00E26E280EE66E040EE66E68C0E1FF69C009
:100C7A00E2FFC80EE66E28D00001020E326E010EA7
:100C8A006825E16E000E6921E26EE66A68C0E1FF3E
:100C9A0069C0E2FFC80EE66E010E3024E16E000E56
:100CAA003120E26E080EE66E020E3024E16E000E6E
:100CBA003120E26E280EE66E040EE66E30C0E1FFC9
:0A0CCA0031C0E2FFC80EE66E120012
:100CD400010E00016325E96E000E6421EA6EEECF79
:100CE40000F000C081F0000E595C02E18151585CB3
:100CF40003E258C081F00AD08151585C006E000EA6
:100D04005958016E00C058F001C059F0826B8151EE
:100D1400825D1CE2280EE96E040EEA6E8251E92619
:100D2400D8B0EA2AEECF00F055C0E1FF56C0E2FF8A
:100D340000C0E6FF010E5524006E000E5620016E21
:100D440000C055F001C056F0822BE1D7000E006EB2
:100D54005950005C02E15850000828E2010E30248A
:100D6400E16E000E3120E26E080EE66E020E3024B3
:100D7400E16E000E3120E26E280EE66E040EE66E81
:100D840063C0E9FF64C0EAFFEECF00F000BC07D007
:100D940030C0E1FF31C0E2FFC80EE66E06D030C0BD
:100DA400E1FF31C0E2FF880EE66E2BD0010E302445
:100DB400E16E000E3120E26E080EE66E020E302463
:100DC400E16E000E3120E26E200EE66E040EE66E39
:100DD40030C0E1FF31C0E2FF840EE66E000E006E0B
:100DE4005D1808E100505C1805E100505B1802E151
:100DF4005A50000A05E05AC000F05BC001F037DC2D
:040E0400579E1200E3
:100E0800326A68C0E1FF69C0E2FFE66A040E0001C9
:100E18006819E16E69C0E2FF000EE21AE66A57AE91
:100E280013D0000E006E5D1808E100505C1805E153
:100E380000505B1802E15A50000A05E05AC000F061
:0A0E48005BC001F012DC579E12009F
:100E5200080E0C6E230E0D6E0D2EFED70C2EFCD737
:020E620012007C
:0C0E6400100E0D6E0D2EFED700001200C7
:040E7000000012006C
:100E740079C002F07AC003F07CC000F07DC001F0BC
:100E8400010E00017C5F000E7D5B0050011009E043
:100E940002C0E1FF03C0E2FF7BC0E6FF024A032A6F
:040EA400EBD7120076
:100EA800000E00017A1902E1000E791902E1016AC7
:100EB80009D079C0E9FF7AC0EAFFEECF00F0016AF5
:0A0EC80000BE012A01C000F0120074
:0E0ED200160E6F6E9F0E6B6E7B0E696E120019
:100EE000000179BF02D0839E01D0838E79BD02D0EC
:100EF000839C01D0838C79BB02D0839A01D0838AF2
:100F000079B902D0839801D0838848B002D0838415
:100F100001D083948386ACDF839679B702D0839E19
:100F200001D0838E79B502D0839C01D0838C79B3B4
:100F300002D0839A01D0838A79B102D0839801D0FC
:100F4000838848B002D0838401D08394838690DF65
:0E0F5000839648A002D07DDF01D084DF12001E
:100F5E00560E3A6E180E3B6E000E3C6EDC0E3F6E59
:100F6E00180E406E000E416EA00E426E180E436EAD
:100F7E00000E446EB60E456E180E466E000E476E8F
:020F8E0012004F
:0A0F9000D08EA28AA08AF28E120011
:100F9A0000017A51000A12E079C000F0000E016ED9
:100FAA00003600900136680E0024E96E000E01201A
:100FBA00EA6EEECF04F0EECF05F011D079C000F062
:100FCA00000E016E003600900136510E0024E96EC3
:100FDA00000E0120EA6EEECF04F0EECF05F0020E0D
:100FEA000424E16E000E0520E26E7BC0E6FF7CC0A1
:100FFA00E6FF010E0424E16E000E0520E26E7DC0BC
:10100A00E6FF04C0E9FF05C0EAFFEECF00F004C026
:10101A00E1FF05C0E2FF400E0014E66E04C0E9FFDE
:10102A0005C0EAFFEECF00F004C0E1FF05C0E2FF11
:10103A00880E0010E66E7A51000A1BE079C000F0B3
:10104A00000E016E003600900136680E0024026E12
:10105A00000E0120036E02C0E9FF03C0EAFF040E7E
:10106A00EE18006E02C0E1FF03C0E2FF00C0E6FF17
:10107A001AD079C000F0000E016E003600900136D9
:10108A00510E0024026E000E0120036E02C0E9FF19
:10109A0003C0EAFF040EEE18006E02C0E1FF03C0AF
:1010AA00E2FF00C0E6FF04C000F005C001F0120034
:1010BA0068C0E9FF69C0EAFFEECF00F000AE05D0D4
:1010CA0068C0E1FF69C0E2FFE66A3E6A326A4D6AB9
:1010DA004E6A4C6AB9DC030E0001836F000E846FFE
:1010EA00856B866B876B886B50EC02F021DD1200F2
:1010FA003250020A02E1E9DD1ED081DE3D50000ACB
:10110A0019E1010E3024E16E000E3120E26E080E64
:10111A00E66E020E3024E16E000E3120E26E200EE1
:10112A00E66E040EE66E30C0E1FF31C0E2FF8C0EBF
:08113A00E66E01D03D6A1200CF
:1011420068C0E9FF69C0EAFFEECF00F0000E00BC04
:10115200010E0001806F040E6819006E00C068F075
:101162006E51080A0AE122C46EFF6E50000803E2C3
:10117200100E6E6F02D0040E6E6F3250010A2CE117
:10118200020E6825E16E000E6921E26E280E006EE5
:10119200040E016E00C0E6FF01C0E6FF45EC03F05D
:1011A2003E50020A07E168C0E1FF69C0E2FF840E17
:1011B200E66E11D000018051000A07E168C0E1FF2C
:1011C20069C0E2FFC80EE66E06D068C0E1FF69C0E2
:0C11D200E2FF880EE66E01D016DE12006F
:1011DE00BFDE00016C6B6D6B4F6A506A6A6A686A9B
:1011EE0071DE6D8C6E6A710E796F0F0E7A6F7B6B7E
:1011FE00010E7C6F000E7D6F36DE6D9C756B080EDA
:10120E00755D16E275C000F0000E016E003600909E
:10121E000136003600900136000E0024E16E040EF9
:10122E000120E26EE66AE66AE66AE66A752BE7D7A1
:10123E00160E706E68A603D0F70E6816FBD74C6AB2
:10124E00576A586A596A6D98080E686F040E696F6E
:06125E00616B6E6B1200D3
:04126400A19A120039
:0C126800489075C079F038DE4880120014
:1012740000016E51000A0AE16D6A696A28DE86DEA1
:0E1284006DB602D06D86FCD7010E6E6F1200A3
:10129200200E00016E5D03E36DB201D002D0006A40
:1012A20012006CC079F06DC07AF0FDDD005217E1DA
:1012B20078C079F07A6B75C07BF076C07CF077C02D
:1012C2007DF06ADE00C06CF001C06DF0010E0024FA
:1012D200E96E000E0120EA6EEECF00F01200006A05
:0212E2001200F8
:1012E4006984EF0E68166D82750E0001836F000E1F
:1012F400846F856B866B876B886B50EC02F01200F1
:1013040070A019D063C0E9FF64C0EAFFEECF01F01A
:101314000150800A0FE168C0E9FF69C0EAFFEECF1F
:1013240001F00150840A06E163C0E1FF64C0E2FFFA
:0C1334008C0EE66E7090DF0E6816120042
:10134000FD0E3914016E026AFF0E0216000E02181D
:1013500002E1000E01186CE17E0E3914016E01C02D
:1013600003F00332039E03C000F0000E016E00364E
:1013700000900136003600900136000E0024026E07
:10138000040E0120036E02C063F003C064F002C0CB
:1013900030F003C031F0040E3018006E00C030F0A1
:1013A00002C0E9FF03C0EAFFEECF00F000C001F089
:1013B0003C0E01160132019E0132019E01500D0AC0
:1013C00035E1020E00016325E96E000E6421EA6E2C
:1013D000EECF01F0EECF02F00250040A02E1280E37
:1013E000011822E1020E6325E16E000E6421E26E17
:1013F000200EE66E040EE66E7F6B080E7F5D14E233
:10140000200EE16E040EE26E7F51E126D8B0E22A92
:10141000280EE96E040EEA6E7F51E926D8B0EA2A5A
:10142000EECFE6FF7F2BE9D748DE01D066DE0DD098
:10143000FD0E3914016E026AFF0E0216000E02182C
:0C14400002E1040E011801E17CDE120044
:10144C00740E0001836F000E846F856B866B876B47
:10145C00886B50EC02F06D92699468A403D0FB0E7B
:06146C006816FBD7120018
:1014720075DD00016C6B6D6B4F6A506A6A6A686A4F
:1014820027DD6D8C6E6A710E836F0F0E846F856B14
:10149200010E866F000E876F92EC02F06D9C7F6BDF
:1014A200080E7F5D16E27FC000F0000E016E00366E
:1014B20000900136003600900136000E0024E16EE5
:1014C200040E0120E26EE66AE66AE66AE66A7F2BAD
:1014D200E7D7160E706E68A603D0F70E6816FBD714
:1014E2004C6A576A586A596A6D98080E686F040EFA
:0814F200696F616B6E6B120063
:1014FA0010D0800E0001706F1AD0C00E706F17D016
:10150A00940E706F14D0D40E706F11D0800E706F5D
:10151A000ED000017051010AECE07051020AEDE0B0
:10152A007051030AEDE07051040AEDE0EFD771053E
:10153A00006E7051002600C070F000C079F0CBDC5C
:10154A004890746B74517225E96E000E7321EA6E2D
:10155A00EE520BE074517225E96E000E7321EA6EA9
:0E156A00EECF75F07CDE742BEDD748801200BA
:10157800959695949598959A959C959E839683941F
:10158800839E839C839A839860DC5FDC5EDC838A1D
:101598008388838669DC839658DC838665DC83963A
:1015A80054DC838661DC839650DC839883865CDC1C
:1015B80083964BDC838658DC8396839A838E838656
:1015C80053DC839642DC839E838883864DDC839636
:1015D8008398838649DC839638DC838645DC83964A
:1015E8008388838641DC839630DC839883863CDC61
:1015F8008396838E838C838A8388838635DC83965F
:0616080024DC4880120002
:10160E000900F5CFE6FF0006FBE10106F9E1120045
:10161E0000016E51010A07E16DBA05D0686A698052
:10162E006988020E6E6F68A405D069A403D0FB0E04
:10163E00681605DF6DA202D00EDE120068A018D06B
:10164E0069A016D00FDF040E6E6F200E0401026F1C
:10165E00040E036F080E016F000E0015006E00C021
:10166E0000F48C0E0011006E00C000F4FE0E681621
:10167E0068A805D069A803D02EDEEF0E681668ACF8
:10168E0011D069AC0FD0730E0001836F000E846F02
:10169E00856B866B010E876F000E886F50EC02F023
:1016AE00BF0E681668AA03D069AA01D024DE68A20C
:1016BE0010D069A20ED0FF0E0001836F3F0E846F13
:1016CE00856B866B010E876F000E886F50EC02F0F3
:1016DE006A6A040E00016E5D02E2BDDD120069A6AB
:1016EE0024D07E6B040E7E5D20E268A61AD06CCFED
:1016FE0039F0F70E6816780E3914016E0150000A93
:10170E0002E117DE0DD0720E0001836F000E846FA2
:10171E00390E856F000E866F876B886B50EC02F06A
:0E172E0001D003D000017E2BDDD795DD120027
:10173C0065C075F066C076F0400E0001776F010E43
:06174C00786FA1DD120020
:10175200010E0001606F70C065F071C066F072C06A
:101762005EF073C05FF03ADD010E016E0150010AB6
:0617720001E17FDD120021
:10177800550E236E530E246E420E256E200E266ED5
:10178800470E276E650E286E6C0E296E650E2A6E42
:101798006E0E2B6E200E2C6E3A0E2D6E2E6A2F6A50
:1017A800C26A0F0EC112C06A070EB412E1DE0C0E37
:1017B8000001796F70EC07F0010E796F70EC07F09B
:1017C800010E706F010E716F230E726F000E736F32
:1017D80090DE020E706F010E716F2F0E726F000E89
:1017E800736F87DE000E706F050E716F400E726F9B
:1017F800050E736FAADF9EDF005201E1FCD700C51A
:1018080035F001C534F005010051AB0A1EE1020EA6
:10181800336E020E3424016E026A000E0222800E1C
:10182800006E800E0218005C02E10150335C0DE28C
:10183800000EE96E050EEA6E3350E926D8B0EA2AA2
:0E184800EECF75F00DDD332AE4D7D5D7FFD7EC
:101856000902290001010080320904000002030088
:101866000000092101010001222100070581034032
:0918760000010705010340000117
:10187F000600FF0901A10119012940150026FF00EB
:10188F00750895408102190129407508954091020C
:01189F00C088
:1018A000160355005300420020007600650020001A
:0618B0004C00430044005F
:1018B60014035300690076006100730020004500A0
:0418C6004D004C0085
:1018CA001201000200000008D204E1100100010226
:0218DA0000010B
:0418DC0004030904F4
:020000040030CA
:0E00000038CC391EFF8381FF0FC00FE00F4088
:00000001FF
