:04000000D4EF0AF03F
:1000080000C01AF001C019F002C018F003C017F0C0
:1000180004C016F005C015F0E1CF21F0E2CF22F0C0
:10002800E9CF1FF0EACF20F0F5CF1EF0F8CF1BF094
:10003800F7CF1CF0F6CF1DF03BEC0AF01EC0F5FF21
:100048001BC0F8FF1CC0F7FF1DC0F6FF1AC000F068
:1000580019C001F018C002F017C003F016C004F070
:1000680015C005F01FC0E9FF20C0EAFF21C0E1FF6D
:0600780022C0E2FF1100AE
:10007E00000E056E040E066E7CC003F0000E046EBC
:10008E000336043603900336043603907DC000F029
:10009E00000E016E0036013600900050032601500E
:1000AE00042203C001F004C002F0013601900236B2
:1000BE0001360190023601C003F002C004F0043292
:1000CE000332049E04BC048E04320332049E04BC2C
:1000DE00048E03C000F004C001F00036009001361B
:1000EE00003600900136055000260650012200C051
:1000FE0005F001C006F000C0E1FF01C0E2FFE69E80
:10010E0000017D51000A12E17CC000F0000E016E6C
:10011E00003600900136360E0024E16E000E0120EE
:10012E00E26E05C0E6FF06C0E6FF11D07CC000F00F
:10013E00000E016E003600900136460E0024E16E70
:10014E00000E0120E26E05C0E6FF06C0E6FF05C008
:10015E00E1FF06C0E2FFE69C040E0524E16E000EF0
:08016E000620E26EE68C12008F
:0E017600800E00017C11006E00C026F0120009
:100184007CC023F07DC024F07EC027F07FC028F01F
:10019400800E00018011006E008000C026F0120065
:1001A4007CC023F07DC024F07EC025F07FC027F002
:1001B40080C028F0800E00018111006E00C026F07E
:0201C400120027
:1001C60020C401F01F0E01160150010AD8A4120026
:1001D60004012451000AD8A412002151060A38E16C
:1001E6002DD03550010A13E1D80E00017C6F150E93
:1001F6007D6F000E7E6F120E7C27000E7D237E2300
:10020600090E7F6F000E806F400E816FC8DF20D011
:100216003550010A0EE10001010E7C6F160E7D6F4E
:10022600000E7E6F210E7F6F000E806F400E816F75
:10023600B6DF0ED000017C6B9BDF0AD00401235190
:10024600210ACFE02351220AE3E02351230AF2E0F8
:1002560020C401F0600E0116050E006E005004E089
:100266000132019EFF0FFBD70150010AD8A41200EC
:1002760027D039D038D0560E00017C6F000E7D6F26
:10028600010E7E6F000E7F6F400E806F78DF2BD0E1
:1002960000017C6B6DDF23C456F025D00001550E9E
:1002A6007C6F000E7D6F010E7E6F000E7F6F806B80
:1002B60066DF19D000017C6B5BDF22C455F013D0DA
:1002C60004012151010AD5E02151090AD3E0215147
:1002D600020AD1E021510A0ADBE02151030ADEE0DD
:0802E60021510B0AE7E01200B0
:1002EE00700EE16E0F0EE26E00017751E126D8B06E
:1002FE00E22A78C0E6FF78A504D077C07CF07D6B4B
:10030E00B7DE78A305D077C07CF0010E7D6FB0DE2E
:02031E001200CB
:1003200000017851000A12E077C000F0000E016E63
:10033000003600900136460E0024E96E000E0120C2
:10034000EA6EEECF04F0EECF05F011D077C000F0EA
:10035000000E016E003600900136360E0024E96E64
:10036000000E0120EA6EEECF04F0EECF05F0020E93
:100370000424E16E000E0520E26E79C0E6FF7AC02B
:10038000E6FF010E0424E16E000E0520E26E7BC044
:10039000E6FF04C0E9FF05C0EAFFEECF00F004C0AD
:1003A000E1FF05C0E2FF400E0014E66E04C0E9FF65
:1003B00005C0EAFFEECF00F004C0E1FF05C0E2FF98
:1003C000880E0010E66E7851000A1BE077C000F03E
:1003D000000E016E003600900136460E0024026EBB
:1003E000000E0120036E02C0E9FF03C0EAFF040E05
:1003F000EE18006E02C0E1FF03C0E2FF00C0E6FF9E
:100400001AD077C000F0000E016E00360090013661
:10041000360E0024026E000E0120036E02C0E9FFBA
:1004200003C0EAFF040EEE18006E02C0E1FF03C035
:10043000E2FF00C0E6FF04C000F005C001F01200BA
:10044000345215E0010E0001776F1E0E786F4FDFFA
:10045000010E776F786B4AC079F04BC07AF0400E8E
:100460007B6F5EDF00C044F001C045F014D0000196
:10047000010E776F1E0E786F3ADF010E776F786B83
:100480004AC079F04BC07AF0400E7B6F49DF00C064
:0804900044F001C045F0120028
:08049800345201E094DE120071
:1004A00071C002F072C003F074C000F075C001F0BA
:1004B000010E0001745F000E755B0050011009E031
:1004C00002C0E1FF03C0E2FF73C0E6FF024A032A55
:0404D000EBD7120054
:1004D4000CD0B4DF3CD03BD0DDDF39D038D037D0BE
:1004E40036D035D0000033D032D0000E000172195E
:1004F40002E1010E7119EDE0000E721902E1020E23
:100504007119E9E0000E721902E1030E7119E4E0B9
:100514007251000A02E1730E7119E0E07251000A8F
:1005240002E1750E7119DBE07251000A02E1740EEA
:100534007119D6E072513F0A02E1FF0E7119D1E040
:100544007251000A02E1720E7119CCE0CDD7010E8E
:04055400006E120023
:100558000B6A0A6A096A00500402F4CF09F0F3CF63
:1005680008F001500502F4CF0BF0F3CF0AF0005069
:100578000502F3500926F4500A22E86A0B220150BA
:100588000402F3500926F4500A22E86A0B2208C034
:1005980000F009C001F00AC002F00BC003F012001D
:1005A800F250026EF29E0500FF6A0150FE6E005086
:0805B800FD6E02BEF28E12007E
:1005C00004012051800AD8A471D0C00E266E64D0D8
:1005D000520E006E160E016E000E026E00C023F069
:1005E00001C024F002C025F0120E276E000E286E06
:1005F0005DD022C400F0000E016E030E046E000EEA
:10060000056EAADF5C0E0024E96E000E0120EA6E82
:10061000EECF23F0EECF24F0EECF25F0020E232410
:10062000F66E000E2420F76E000E2520F86E0900ED
:10063000F5CF00F00900F5CF01F000C027F001C0B0
:1006400028F034D0030E225D23E222C400F0000E15
:10065000016E030E046E000E056E7EDF3B0E00245D
:10066000E96E000E0120EA6EEECF23F0EECF24F00B
:10067000EECF25F023C0F6FF24C0F7FF25C0F8FF1A
:100680000900F5CF00F000C027F0000E286E01D061
:10069000266A0CD0266A0AD02351010A99E0235118
:0E06A000020AA7E02351030ACDE0F4D71200AE
:1006AE00268E710E0001716F0F0E726F736B010E3D
:1006BE00746F000E756FEDDE520E716F000E726F5D
:1006CE00736B010E746F000E756FE3DE22C435F08E
:1006DE003550000A03E1100E3A6E0FD0200E3A6E1E
:1006EE00010E716F000E726F350E736F000E746F08
:0C06FE00010E756F000E766FE6DE120034
:10070A00000E285C02E1080E275C10E227C003F005
:10071A0028C004F04F50000A03E1010E4F6E05D0C5
:10072A004F50010A02E1020E4F6E04D0080E036E0A
:10073A00000E046E46C0E1FF47C0E2FFE69246C0E3
:10074A00E1FF47C0E2FFE69046C0E9FF47C0EAFF83
:10075A00EECF00F046C0E1FF47C0E2FF04500010B0
:10076A00E66E010E4624E16E000E4720E26E03C0DB
:10077A00E6FF0350275C006E04502858016E00C043
:10078A0027F001C028F0280E506E040E516E26B0D4
:10079A002FD0035004102BE023C0F6FF24C0F7FF2C
:1007AA0025C0F8FF0900F5CF00F050C0E1FF51C0A5
:1007BA00E2FF00C0E6FF504A512A010E2324006ED0
:1007CA00000E2420016E000E2520026E00C023F0C8
:1007DA0001C024F002C025F0010E035C006E000E79
:1007EA000458016E00C003F001C004F0D2D724D02F
:1007FA000350041021E023C0E9FF24C0EAFF50C0DF
:10080A00E1FF51C0E2FFEECFE6FF504A512A010E46
:10081A002324006E000E2420016E00C023F001C0C4
:10082A0024F0010E035C006E000E0458016E00C035
:0A083A0003F001C004F0DCD7120047
:1008440004012251010A0FE120C401F01F0E011618
:100854000150000A08E1268E2151030A03E1010E2A
:100864004E6E01D04E6A2251000AD8A489D020C409
:1008740001F01F0E01160150020AD8A481D024C42D
:1008840001F00F0E01160150000AD8B479D0268E5B
:1008940024BF16D024C403F00F0E031603C000F0C7
:1008A400000E016E003600900136360E0024E96E0B
:1008B400000E0120EA6EEECF04F0EECF05F015D065
:1008C40024C403F00F0E031603C000F0000E016EE3
:1008D400003600900136460E0024E96E000E012019
:1008E400EA6EEECF04F0EECF05F02151030A07E1E2
:1008F40004C0E1FF05C0E2FF840EE66E41D024C4CB
:1009040000F00F0E0016700E026E0F0E036E0050F4
:100914000226D8B0032A02C0E9FF03C0EAFFEECFE3
:1009240000F0EECF01F0009002C0E1FF03C0E2FF4F
:1009340000C0E6FF01C0E6FF24AF11D004C0E1FF10
:1009440005C0E2FFE66A040E0418006E00C004F05D
:1009540004C0E1FF05C0E2FF400EE66E11D004C002
:10096400E1FF05C0E2FF880EE66E040E0418006E77
:1009740000C004F004C0E1FF05C0E2FFC80EE66E4B
:0209840012005F
:100986000401286B296B42D0268E28814E50010A1D
:10099600D8B4288350D0268E4ED0268E24BF16D0AB
:1009A60024C403F00F0E031603C000F0000E016E00
:1009B600003600900136360E0024E96E000E012046
:1009C600EA6EEECF04F0EECF05F015D024C403F0A6
:1009D6000F0E031603C000F0000E016E00360090E5
:1009E6000136460E0024E96E000E0120EA6EEECFB7
:1009F60004F0EECF05F004C0E9FF05C0EAFFEECF34
:100A060001F001A402D0010E286F15D020C401F018
:100A16001F0E01160150000AB7E020C401F01F0E98
:100A260001160150010AB7E020C401F01F0E01169D
:100A36000150020AB2E026AE07D0280E236E040E3D
:0A0A4600246E2680020E276E1200B7
:100A5000596A46C0E1FF47C0E2FFE66A040E461845
:100A6000E16E47C0E2FF000EE21AE66A2DAE13D037
:100A7000000E006E331808E10050321805E10050F6
:100A8000311802E13050000A05E030C000F031C0FA
:080A900001F08ADD2D9E120029
:100A9800010E5724E96E000E5820EA6EEECF00F0E2
:100AA80000C06FF0000E2F5C03E100016F512E5C57
:100AB80003E22EC06FF00BD000016F512E5C006E68
:100AC800000E2F58016E00C02EF001C02FF000015B
:100AD800706B6F51705D1CE2280EE96E040EEA6EB1
:100AE8007051E926D8B0EA2AEECF00F02BC0E1FF1A
:100AF8002CC0E2FF00C0E6FF010E2B24006E000EA2
:100B08002C20016E00C02BF001C02CF0702BE1D717
:100B1800000E006E2F50005C02E12E50000828E203
:100B2800010E5A24E16E000E5B20E26E080EE66E9E
:100B3800020E5A24E16E000E5B20E26E280EE66E6D
:100B4800040EE66E57C0E9FF58C0EAFFEECF00F08A
:100B580000BC07D05AC0E1FF5BC0E2FFC80EE66EDA
:100B680006D05AC0E1FF5BC0E2FF880EE66E2BD0CC
:100B7800010E5A24E16E000E5B20E26E080EE66E4E
:100B8800020E5A24E16E000E5B20E26E200EE66E25
:100B9800040EE66E5AC0E1FF5BC0E2FF840EE66E0B
:100BA800000E006E331808E10050321805E10050BD
:100BB800311802E13050000A05E030C000F031C0C1
:080BC80001F0EEDC2D9E12008D
:100BD00020C401F0600E0116050E006E005004E006
:100BE0000132019EFF0FFBD70150000AD8A412006A
:100BF0003ED0268E080E3A6E5DD0E2DC5BD057DD2B
:100C000059D0350E236E000E246E2680010E276EFD
:100C1000268E50D0B8DE4ED015DE4CD0520E006E6F
:100C2000000E016E24510026D8B0012A00C023F026
:100C300001C024F02680010E276E268E3BD0268E22
:100C4000520EE16E000EE26E2451E126D8B0E22A87
:100C500022C4E6FF2FD0020E0001716F000E726FEA
:100C6000736B746B756B766B35DC24D023D0040109
:100C70002151050ABEE02151060ABFE02151090AAF
:100C8000BEE02151080ABDE02151000AC3E0215114
:100C9000010AC2E02151030ABFE021510A0ABEE065
:100CA00021510B0ACCE02151070AD5E021510C0A51
:060CB000DDE0DCD71200BC
:100CB6006D9826BE49D02DAE28D0020E596E010E73
:100CC6004624E16E000E4720E26EE66A46C0E1FF6A
:100CD60047C0E2FFC80EE66E010E5A24E16E000E12
:100CE6005B20E26E080EE66E020E5A24E16E000EDE
:100CF6005B20E26E280EE66E040EE66E5AC0E1FF39
:100D06005BC0E2FFC80EE66E1ED0010E5A24E16EED
:100D1600000E5B20E26E080EE66E020E5A24E16EAD
:100D2600000E5B20E26E200EE66E040EE66E5AC0E2
:100D3600E1FF5BC0E2FF8C0EE66E46C0E1FF47C0F6
:100D4600E2FF840EE66E7DD02DBE7BD0040120AF7F
:100D560051D02850275D02E12750265D04E226C4C3
:100D660027F027C428F0CEDC010E596E010E5A2456
:100D7600E16E000E5B20E26E080EE66E020E5A244D
:100D8600E16E000E5B20E26E200EE66E040EE66E4D
:100D96005AC0E1FF5BC0E2FF800EE66E546A010EA8
:100DA6005724E16E000E5820E26E080EE66E020E23
:100DB6005724E16E000E5820E26E200EE66E040EF9
:100DC600E66E57C0E1FF58C0E2FF840EE66E010EE4
:100DD600546E020E4624E16E000E4720E26E280E87
:100DE600E66E040EE66E46C0E1FF47C0E2FFC80E9F
:100DF600E66E27D0020E596E010E4624E16E000EF5
:100E06004720E26EE66A46C0E1FF47C0E2FFC80E31
:100E1600E66E010E5A24E16E000E5B20E26E080EAD
:100E2600E66E020E5A24E16E000E5B20E26E280E7C
:100E3600E66E040EE66E5AC0E1FF5BC0E2FFC80E26
:040E4600E66E120042
:100E4A005950020A02E123DE1ED0FDDD5450000A89
:100E5A0019E1010E5A24E16E000E5B20E26E080EC3
:100E6A00E66E020E5A24E16E000E5B20E26E200E40
:100E7A00E66E040EE66E5AC0E1FF5BC0E2FF8C0E1E
:080E8A00E66E01D0546A12006B
:100E9200000E0001681902E1000E671902E1016A01
:100EA20009D067C0E9FF68C0EAFFEECF00F0016A2F
:0A0EB20000BE012A01C000F012008A
:100EBC0000016851000A12E067C000F0000E016EDC
:100ECC00003600900136460E0024E96E000E01201B
:100EDC00EA6EEECF04F0EECF05F011D067C000F053
:100EEC00000E016E003600900136360E0024E96EBD
:100EFC00000E0120EA6EEECF04F0EECF05F0020EEC
:100F0C000424E16E000E0520E26E69C0E6FF6AC0A3
:100F1C00E6FF010E0424E16E000E0520E26E6BC0AC
:100F2C00E6FF04C0E9FF05C0EAFFEECF00F004C005
:100F3C00E1FF05C0E2FF400E0014E66E04C0E9FFBD
:100F4C0005C0EAFFEECF00F004C0E1FF05C0E2FFF0
:100F5C00880E0010E66E6851000A1BE067C000F0B6
:100F6C00000E016E003600900136460E0024026E13
:100F7C00000E0120036E02C0E9FF03C0EAFF040E5D
:100F8C00EE18006E02C0E1FF03C0E2FF00C0E6FFF6
:100F9C001AD067C000F0000E016E003600900136CA
:100FAC00360E0024026E000E0120036E02C0E9FF13
:100FBC0003C0EAFF040EEE18006E02C0E1FF03C08E
:100FCC00E2FF00C0E6FF04C000F005C001F0120013
:100FDC00D80E5C6E150E5D6E000E5E6E640E3B6E72
:100FEC00160E3C6E000E3D6E3E0E3E6E160E3F6EA5
:100FFC00000E406E220E416E160E426E000E436EB7
:02100C001200D0
:10100E0067C002F068C003F06AC000F06BC001F068
:10101E00010E00016A5F000E6B5B0050011009E0CB
:10102E0002C0E1FF03C0E2FF69C0E6FF024A032AE5
:04103E00EBD71200DA
:0A104200D08EA28AA08AF28E12005E
:0E104C00160E6F6E9F0E6B6E7B0E696E12009D
:10105A0046C0E9FF47C0EAFFEECF00F000AE05D078
:10106A0046C0E1FF47C0E2FFE66A4F6A596A276A4B
:10107A00286A266AA8DD030E0001716F000E726FDE
:10108A00736B746B756B766B6AEC02F00FDE120091
:10109A0046C0E9FF47C0EAFFEECF00F0000E00BCF1
:1010AA00010E00016E6F040E4618006E00C046F075
:1010BA003A50080A0AE122C46EFF6E50000803E2A1
:1010CA00100E3A6E02D0040E3A6E5950010A2CE103
:1010DA00020E4624E16E000E4720E26E280E006ED4
:1010EA00040E016E00C0E6FF01C0E6FF85EC03F0C6
:1010FA004F50020A07E146C0E1FF47C0E2FF840EF3
:10110A00E66E11D000016E51000A07E146C0E1FF08
:10111A0047C0E2FFC80EE66E06D046C0E1FF47C0F0
:0C112A00E2FF880EE66E01D08EDC1200A1
:10113600740E0001716F000E726F736B746B756BBA
:10114600766B6AEC02F06D92699468A403D0FB0E8C
:061156006816FBD7120031
:04115C00A19A120042
:101160003A50000A0AE16D6A696A70DF6ADF6DB69B
:0C11700002D06D86FCD7010E3A6E120012
:10117C002FDF446A456A296A2A6A6A6A686A60DFEC
:10118C006D8C6E6A710E0001676F0F0E686F696B64
:10119C00010E6A6F000E6B6F34DF6D9C636B080E73
:1011AC00635D16E263C000F0000E016E0036009025
:1011BC000136003600900136000E0024E16E040E5C
:1011CC000120E26EE66AE66AE66AE66A632BE7D716
:1011DC00160E706E68A603D0F70E6816FBD7266A3B
:1011EC002D6A2E6A2F6A6D98080E466E040E476E95
:0611FC00356A3A6A120098
:10120200200E3A5C03E36DB201D002D0006A1200F4
:1012120044C067F045C068F03BDE005217E166C08B
:1012220067F0686B63C069F064C06AF065C06BF018
:1012320044DE00C044F001C045F0010E0024E96E16
:10124200000E0120EA6EEECF00F01200006A1200DA
:101252006984EF0E68166D82750E0001716F000EC3
:10126200726F736B746B756B766B6AEC02F01200C3
:10127200B4DE446A456A296A2A6A6A6A686AE5DEED
:101282006D8C6E6A710E0001716F0F0E726F736B4F
:10129200010E746F000E756F50EC02F06D9C6D6B59
:1012A200080E6D5D16E26DC000F0000E016E003694
:1012B20000900136003600900136000E0024E16EE7
:1012C200040E0120E26EE66AE66AE66AE66A6D2BC1
:1012D200E7D7160E706E68A603D0F70E6816FBD716
:1012E200266A2D6A2E6A2F6A6D98080E466E040EC3
:0812F200476E356A3A6A1200EA
:1012FA00FD0E5314016E026AFF0E0216000E02184A
:10130A0002E1000E01186CE17E0E5314016E01C059
:10131A0003F00332039E03C000F0000E016E003694
:10132A0000900136003600900136000E0024026E4D
:10133A00040E0120036E02C057F003C058F002C029
:10134A005AF003C05BF0040E5A18006E00C05AF03F
:10135A0002C0E9FF03C0EAFFEECF00F000C001F0CF
:10136A003C0E01160132019E0132019E01500D0A06
:10137A0035E1020E5724E96E000E5820EA6EEECFD0
:10138A0001F0EECF02F00250040A02E1280E011821
:10139A0023E1020E5724E16E000E5820E26E200E61
:1013AA00E66E040EE66E00016D6B080E6D5D14E2CA
:1013BA00200EE16E040EE26E6D51E126D8B0E22AEB
:1013CA00280EE96E040EEA6E6D51E926D8B0EA2AB3
:1013DA00EECFE6FF6D2BE9D73BDE01D031DD0DD034
:1013EA00FD0E5314016E026AFF0E0216000E021859
:0C13FA0002E1040E011801E14BDE1200BC
:1014060070A019D057C0E9FF58C0EAFFEECF01F02F
:101416000150800A0FE146C0E9FF47C0EAFFEECF60
:1014260001F00150840A06E157C0E1FF58C0E2FF0F
:0C1436008C0EE66E7090DF0E681612003F
:101442000900F5CFE6FF0006FBE10106F9E1120013
:10145200010E346E5FC04AF060C04BF061C04CF0C8
:1014620062C04DF08ADE010E016E0150010A01E1F7
:0414720076DE120010
:101476003A50010A07E16DBA05D0686A6980698841
:10148600020E3A6E68A405D069A403D0FB0E681656
:101496004FDE6DA202D05FDE120068A018D069A0F0
:1014A60016D0E4DE040E3A6E200E0401026F040E1E
:1014B600036F080E016F000E0015006E00C000F4E9
:1014C6008C0E0011006E00C000F4FE0E681668A8AF
:1014D60005D069A803D0BADEEF0E681668AC11D045
:1014E60069AC0FD0730E0001716F000E726F736BD3
:1014F600746B010E756F000E766F6AEC02F0BF0E0C
:10150600681668AA03D069AA01D07ADF68A210D04B
:1015160069A20ED0FF0E0001716F3F0E726F736BE2
:10152600746B010E756F000E766F6AEC02F06A6AD4
:10153600040E3A5C02E20FDE120069A625D0000115
:101546006C6B040E6C5D20E268A61AD06CCF53F06B
:10155600F70E6816780E5314016E0150000A02E168
:10156600C9DE0DD0720E0001716F000E726F530E40
:10157600736F000E746F756B766B6AEC02F001D0B8
:0C15860003D000016C2BDDD7E6DD120065
:101592004AC063F04BC064F0400E0001656F010E5B
:0615A200666F2EDE120050
:1015A8000F0EC112070EB412936A816A000E5F6EA5
:1015B800050E0001606F400E616F050E626F45DF1A
:1015C800E4DF005201E1FCD700C581FFF9D7FFD75E
:1015D8000902290001010080320904000002030009
:1015E80000000921010100012221000705810340B3
:0915F80000010705010340000198
:101601000600FF0901A10119012940150026FF006B
:10161100750895408102190129407508954091028C
:01162100C008
:101622001C03480069006B006B006F00200055002E
:0C16320053004200200048004900440022
:10163E00140353006900760061007300200045001A
:04164E004D004C00FF
:1016520012010002000000083412341201000102DB
:02166200000185
:04166400040309046E
:020000040030CA
:0E00000038CE391EFF8381FF0FC00FE00F4086
:00000001FF
